{
  "_format": "hh-sol-artifact-1",
  "contractName": "HelloWorld",
  "sourceName": "contracts/Greeter.sol",
  "abi": [
    {
      "inputs": [
        {
          "internalType": "string",
          "name": "initMessage",
          "type": "string"
        }
      ],
      "stateMutability": "nonpayable",
      "type": "constructor"
    },
    {
      "anonymous": false,
      "inputs": [
        {
          "indexed": false,
          "internalType": "string",
          "name": "oldStr",
          "type": "string"
        },
        {
          "indexed": false,
          "internalType": "string",
          "name": "newStr",
          "type": "string"
        }
      ],
      "name": "UpdatedMessages",
      "type": "event"
    },
    {
      "inputs": [],
      "name": "message",
      "outputs": [
        {
          "internalType": "string",
          "name": "",
          "type": "string"
        }
      ],
      "stateMutability": "view",
      "type": "function"
    },
    {
      "inputs": [
        {
          "internalType": "string",
          "name": "newMessage",
          "type": "string"
        }
      ],
      "name": "update",
      "outputs": [],
      "stateMutability": "nonpayable",
      "type": "function"
    }
  ],
  "bytecode": "0x60806040523480156200001157600080fd5b5060405162000af038038062000af08339818101604052810190620000379190620002a4565b80600090805190602001906200004f92919062000057565b50506200035a565b828054620000659062000324565b90600052602060002090601f016020900481019282620000895760008555620000d5565b82601f10620000a457805160ff1916838001178555620000d5565b82800160010185558215620000d5579182015b82811115620000d4578251825591602001919060010190620000b7565b5b509050620000e49190620000e8565b5090565b5b8082111562000103576000816000905550600101620000e9565b5090565b6000604051905090565b600080fd5b600080fd5b600080fd5b600080fd5b6000601f19601f8301169050919050565b7f4e487b7100000000000000000000000000000000000000000000000000000000600052604160045260246000fd5b620001708262000125565b810181811067ffffffffffffffff8211171562000192576200019162000136565b5b80604052505050565b6000620001a762000107565b9050620001b5828262000165565b919050565b600067ffffffffffffffff821115620001d857620001d762000136565b5b620001e38262000125565b9050602081019050919050565b60005b8381101562000210578082015181840152602081019050620001f3565b8381111562000220576000848401525b50505050565b60006200023d6200023784620001ba565b6200019b565b9050828152602081018484840111156200025c576200025b62000120565b5b62000269848285620001f0565b509392505050565b600082601f8301126200028957620002886200011b565b5b81516200029b84826020860162000226565b91505092915050565b600060208284031215620002bd57620002bc62000111565b5b600082015167ffffffffffffffff811115620002de57620002dd62000116565b5b620002ec8482850162000271565b91505092915050565b7f4e487b7100000000000000000000000000000000000000000000000000000000600052602260045260246000fd5b600060028204905060018216806200033d57607f821691505b60208210811415620003545762000353620002f5565b5b50919050565b610786806200036a6000396000f3fe608060405234801561001057600080fd5b50600436106100365760003560e01c80633d7403a31461003b578063e21f37ce14610057575b600080fd5b61005560048036038101906100509190610557565b610075565b005b61005f610204565b60405161006c9190610628565b60405180910390f35b600080805461008390610679565b80601f01602080910402602001604051908101604052809291908181526020018280546100af90610679565b80156100fc5780601f106100d1576101008083540402835291602001916100fc565b820191906000526020600020905b8154815290600101906020018083116100df57829003601f168201915b50505050509050816000908051906020019061011992919061035a565b506101c760405180606001604052806022815260200161072f602291396000805461014390610679565b80601f016020809104026020016040519081016040528092919081815260200182805461016f90610679565b80156101bc5780601f10610191576101008083540402835291602001916101bc565b820191906000526020600020905b81548152906001019060200180831161019f57829003601f168201915b505050505084610292565b7ff91d506d7335e83e4869a58cd98e0557cdcef6f507ba1e52725521305626d05b81836040516101f89291906106ab565b60405180910390a15050565b6000805461021190610679565b80601f016020809104026020016040519081016040528092919081815260200182805461023d90610679565b801561028a5780601f1061025f5761010080835404028352916020019161028a565b820191906000526020600020905b81548152906001019060200180831161026d57829003601f168201915b505050505081565b61032c8383836040516024016102aa939291906106e2565b6040516020818303038152906040527f2ced7cef000000000000000000000000000000000000000000000000000000007bffffffffffffffffffffffffffffffffffffffffffffffffffffffff19166020820180517bffffffffffffffffffffffffffffffffffffffffffffffffffffffff8381831617835250505050610331565b505050565b60008151905060006a636f6e736f6c652e6c6f679050602083016000808483855afa5050505050565b82805461036690610679565b90600052602060002090601f01602090048101928261038857600085556103cf565b82601f106103a157805160ff19168380011785556103cf565b828001600101855582156103cf579182015b828111156103ce5782518255916020019190600101906103b3565b5b5090506103dc91906103e0565b5090565b5b808211156103f95760008160009055506001016103e1565b5090565b6000604051905090565b600080fd5b600080fd5b600080fd5b600080fd5b6000601f19601f8301169050919050565b7f4e487b7100000000000000000000000000000000000000000000000000000000600052604160045260246000fd5b6104648261041b565b810181811067ffffffffffffffff821117156104835761048261042c565b5b80604052505050565b60006104966103fd565b90506104a2828261045b565b919050565b600067ffffffffffffffff8211156104c2576104c161042c565b5b6104cb8261041b565b9050602081019050919050565b82818337600083830152505050565b60006104fa6104f5846104a7565b61048c565b90508281526020810184848401111561051657610515610416565b5b6105218482856104d8565b509392505050565b600082601f83011261053e5761053d610411565b5b813561054e8482602086016104e7565b91505092915050565b60006020828403121561056d5761056c610407565b5b600082013567ffffffffffffffff81111561058b5761058a61040c565b5b61059784828501610529565b91505092915050565b600081519050919050565b600082825260208201905092915050565b60005b838110156105da5780820151818401526020810190506105bf565b838111156105e9576000848401525b50505050565b60006105fa826105a0565b61060481856105ab565b93506106148185602086016105bc565b61061d8161041b565b840191505092915050565b6000602082019050818103600083015261064281846105ef565b905092915050565b7f4e487b7100000000000000000000000000000000000000000000000000000000600052602260045260246000fd5b6000600282049050600182168061069157607f821691505b602082108114156106a5576106a461064a565b5b50919050565b600060408201905081810360008301526106c581856105ef565b905081810360208301526106d981846105ef565b90509392505050565b600060608201905081810360008301526106fc81866105ef565b9050818103602083015261071081856105ef565b9050818103604083015261072481846105ef565b905094935050505056fe4368616e67696e67206d6573736167652066726f6d202725732720746f2027257327a2646970667358221220a85f5386e283547ced02f4f83541a33873bf0e2c3f9a1865003a12608f0aec9064736f6c63430008090033",
  "linkReferences": {},
  "deployedLinkReferences": {}
}