{
  "_format": "hh-sol-artifact-1",
  "contractName": "NFTSwap",
  "sourceName": "contracts/NFTSwap.sol",
  "abi": [
    {
      "inputs": [],
      "stateMutability": "nonpayable",
      "type": "constructor"
    },
    {
      "inputs": [
        {
          "internalType": "uint256",
          "name": "proposalId",
          "type": "uint256"
        },
        {
          "internalType": "uint256",
          "name": "bidId",
          "type": "uint256"
        }
      ],
      "name": "acceptBid",
      "outputs": [],
      "stateMutability": "nonpayable",
      "type": "function"
    },
    {
      "inputs": [
        {
          "internalType": "uint256",
          "name": "",
          "type": "uint256"
        }
      ],
      "name": "bids",
      "outputs": [
        {
          "internalType": "address",
          "name": "bidder",
          "type": "address"
        },
        {
          "internalType": "uint256",
          "name": "proposalRef",
          "type": "uint256"
        },
        {
          "internalType": "contract IERC721",
          "name": "nftAddress",
          "type": "address"
        },
        {
          "internalType": "uint256",
          "name": "tokenId",
          "type": "uint256"
        },
        {
          "internalType": "uint256",
          "name": "indexInProposal",
          "type": "uint256"
        }
      ],
      "stateMutability": "view",
      "type": "function"
    },
    {
      "inputs": [
        {
          "internalType": "uint256",
          "name": "bidId",
          "type": "uint256"
        }
      ],
      "name": "deleteBid",
      "outputs": [],
      "stateMutability": "nonpayable",
      "type": "function"
    },
    {
      "inputs": [
        {
          "internalType": "uint256",
          "name": "proposalId",
          "type": "uint256"
        }
      ],
      "name": "deleteProposal",
      "outputs": [],
      "stateMutability": "nonpayable",
      "type": "function"
    },
    {
      "inputs": [
        {
          "internalType": "uint8",
          "name": "proposalId",
          "type": "uint8"
        },
        {
          "internalType": "uint256",
          "name": "index",
          "type": "uint256"
        }
      ],
      "name": "getBidFromProposal",
      "outputs": [
        {
          "internalType": "uint256",
          "name": "bidRef",
          "type": "uint256"
        }
      ],
      "stateMutability": "view",
      "type": "function"
    },
    {
      "inputs": [
        {
          "internalType": "uint256",
          "name": "proposalId",
          "type": "uint256"
        }
      ],
      "name": "getBidsFromProposal",
      "outputs": [
        {
          "internalType": "uint256[]",
          "name": "bidsRef",
          "type": "uint256[]"
        }
      ],
      "stateMutability": "view",
      "type": "function"
    },
    {
      "inputs": [
        {
          "internalType": "uint256",
          "name": "proposalId",
          "type": "uint256"
        },
        {
          "internalType": "contract IERC721",
          "name": "bidNftAddress",
          "type": "address"
        },
        {
          "internalType": "uint256",
          "name": "bidNftTokenId",
          "type": "uint256"
        }
      ],
      "name": "makeBid",
      "outputs": [],
      "stateMutability": "nonpayable",
      "type": "function"
    },
    {
      "inputs": [
        {
          "internalType": "contract IERC721",
          "name": "nftAddress",
          "type": "address"
        },
        {
          "internalType": "uint256",
          "name": "tokenId",
          "type": "uint256"
        }
      ],
      "name": "makeProposal",
      "outputs": [],
      "stateMutability": "nonpayable",
      "type": "function"
    },
    {
      "inputs": [
        {
          "internalType": "uint256",
          "name": "",
          "type": "uint256"
        }
      ],
      "name": "proposals",
      "outputs": [
        {
          "internalType": "address",
          "name": "proposer",
          "type": "address"
        },
        {
          "internalType": "contract IERC721",
          "name": "nftAddress",
          "type": "address"
        },
        {
          "internalType": "uint256",
          "name": "tokenId",
          "type": "uint256"
        },
        {
          "internalType": "uint256",
          "name": "proposalId",
          "type": "uint256"
        }
      ],
      "stateMutability": "view",
      "type": "function"
    },
    {
      "inputs": [
        {
          "internalType": "uint256",
          "name": "proposalId",
          "type": "uint256"
        },
        {
          "internalType": "uint256",
          "name": "bidId",
          "type": "uint256"
        }
      ],
      "name": "refuseBid",
      "outputs": [],
      "stateMutability": "nonpayable",
      "type": "function"
    }
  ],
  "bytecode": "0x608060405234801561001057600080fd5b506117fa806100206000396000f3fe608060405234801561001057600080fd5b506004361061009e5760003560e01c8063655e9da411610066578063655e9da4146101e25780637aa39ee5146101f55780638259d553146102085780638bebfca91461021b578063dbab5cfb1461022e57600080fd5b8063013cf08b146100a357806302e9d5e4146101155780632d0e40861461012a5780634423c5f11461014b5780634e054d8d146101cf575b600080fd5b6100e56100b13660046114ec565b60006020819052908152604090208054600182015460028301546003909301546001600160a01b0392831693919092169184565b604080516001600160a01b0395861681529490931660208501529183015260608201526080015b60405180910390f35b610128610123366004611505565b61024e565b005b61013d610138366004611527565b61085d565b60405190815260200161010c565b6101966101593660046114ec565b6001602081905260009182526040909120805491810154600282015460038301546004909301546001600160a01b03948516949293919092169185565b604080516001600160a01b039687168152602081019590955292909416918301919091526060820152608081019190915260a00161010c565b6101286101dd36600461156e565b610906565b6101286101f036600461158c565b610bba565b610128610203366004611505565b610f5a565b6101286102163660046114ec565b61100b565b6101286102293660046114ec565b6111da565b61024161023c3660046114ec565b611332565b60405161010c91906115c4565b60008181526001602081815260408084205486855291849052909220015433916001600160a01b0390811691166102a05760405162461bcd60e51b815260040161029790611608565b60405180910390fd5b6000848152602081905260409020546001600160a01b038381169116146102d95760405162461bcd60e51b815260040161029790611649565b6000838152600160205260409020600201546001600160a01b03166103105760405162461bcd60e51b815260040161029790611680565b60008481526020818152604080832060018082015460029283015489875291909452938290209081015460039091015491516331a9108f60e11b8152600481018590526001600160a01b03938416949391821692918716908590636352211e9060240160206040518083038186803b15801561038b57600080fd5b505afa15801561039f573d6000803e3d6000fd5b505050506040513d601f19601f820116820180604052508101906103c391906116b7565b6001600160a01b031614610422576103da886113cd565b60405162461bcd60e51b815260206004820152601e60248201527f596f7520646f206e6f74206f776e20746865206e667420616e796d6f726500006044820152606401610297565b60405163020604bf60e21b81526004810184905230906001600160a01b0386169063081812fc9060240160206040518083038186803b15801561046457600080fd5b505afa158015610478573d6000803e3d6000fd5b505050506040513d601f19601f8201168201806040525081019061049c91906116b7565b6001600160a01b031614610531576104b3886113cd565b60405162461bcd60e51b815260206004820152604760248201527f596f752072656d6f76656420617070726f76616c20666f7220746865206e667460448201527f20746f207468697320636f6e74726163742c20706c656173652072652d6170706064820152661c9bdd99481a5d60ca1b608482015260a401610297565b6040516331a9108f60e11b8152600481018290526001600160a01b038087169190841690636352211e9060240160206040518083038186803b15801561057657600080fd5b505afa15801561058a573d6000803e3d6000fd5b505050506040513d601f19601f820116820180604052508101906105ae91906116b7565b6001600160a01b03161461061d576105c587611277565b60405162461bcd60e51b815260206004820152602760248201527f5468652062696464657220646f6573206e6f74206f776e20746865206e667420604482015266616e796d6f726560c81b6064820152608401610297565b60405163020604bf60e21b81526004810182905230906001600160a01b0384169063081812fc9060240160206040518083038186803b15801561065f57600080fd5b505afa158015610673573d6000803e3d6000fd5b505050506040513d601f19601f8201168201806040525081019061069791906116b7565b6001600160a01b031614610776576106ae87611277565b60405162461bcd60e51b815260206004820152608560248201527f546865206269646465722072656d6f76656420617070726f76616c20666f722060448201527f74686520626964646564206e667420746f207468697320636f6e74726163742e60648201527f20496d706f737369626c6520746f20636f6d706c65746520746865207377617060848201527f20756e74696c20746865206269646465722072652d617070726f76657320746860a48201526419481b999d60da1b60c482015260e401610297565b604051632142170760e11b81526001600160a01b0387811660048301528681166024830152604482018590528516906342842e0e90606401600060405180830381600087803b1580156107c857600080fd5b505af11580156107dc573d6000803e3d6000fd5b5050604051632142170760e11b81526001600160a01b038881166004830152898116602483015260448201859052851692506342842e0e9150606401600060405180830381600087803b15801561083257600080fd5b505af1158015610846573d6000803e3d6000fd5b50505050610853886113cd565b5050505050505050565b60ff82166000908152602081905260408120600101546001600160a01b03166108985760405162461bcd60e51b815260040161029790611608565b60ff831660009081526020819052604090206004015482106108cc5760405162461bcd60e51b815260040161029790611680565b60ff831660009081526020819052604090206004018054839081106108f3576108f36116db565b9060005260206000200154905092915050565b60405163020604bf60e21b81526004810182905230906001600160a01b0384169063081812fc9060240160206040518083038186803b15801561094857600080fd5b505afa15801561095c573d6000803e3d6000fd5b505050506040513d601f19601f8201168201806040525081019061098091906116b7565b6001600160a01b0316146109a65760405162461bcd60e51b8152600401610297906116f1565b6040516331a9108f60e11b815260048101829052339081906001600160a01b03851690636352211e9060240160206040518083038186803b1580156109ea57600080fd5b505afa1580156109fe573d6000803e3d6000fd5b505050506040513d601f19601f82011682018060405250810190610a2291906116b7565b6001600160a01b031614610a785760405162461bcd60e51b815260206004820181905260248201527f596f7520646f206e6f74206f776e2074686520737065636966696564206e66746044820152606401610297565b60ff600254111580610a8b575060045415155b610aee5760405162461bcd60e51b815260206004820152602e60248201527f596f75206861766520746f6f206d616e792070726f706f73616c732c2064656c60448201526d657465206f6e65206265666f726560901b6064820152608401610297565b60045460009015610b525760048054610b0990600190611764565b81548110610b1957610b196116db565b906000526020600020015490506004805480610b3757610b3761177b565b60019003818190600052602060002001600090559055610b6d565b5060028054906001906000610b678385611791565b90915550505b600081815260208190526040902080546001600160a01b039384166001600160a01b0319918216178255600182018054969094169516949094179091556002830191909155600390910155565b60405163020604bf60e21b81526004810182905230906001600160a01b0384169063081812fc9060240160206040518083038186803b158015610bfc57600080fd5b505afa158015610c10573d6000803e3d6000fd5b505050506040513d601f19601f82011682018060405250810190610c3491906116b7565b6001600160a01b031614610c5a5760405162461bcd60e51b8152600401610297906116f1565b6000838152602081905260409020600101546001600160a01b0316610c915760405162461bcd60e51b815260040161029790611608565b6040516331a9108f60e11b815260048101829052339081906001600160a01b03851690636352211e9060240160206040518083038186803b158015610cd557600080fd5b505afa158015610ce9573d6000803e3d6000fd5b505050506040513d601f19601f82011682018060405250810190610d0d91906116b7565b6001600160a01b031614610d635760405162461bcd60e51b815260206004820181905260248201527f596f7520646f206e6f74206f776e2074686520737065636966696564206e66746044820152606401610297565b600554151580610d76575060ff60035411155b610dd45760405162461bcd60e51b815260206004820152602960248201527f596f75206861766520746f6f206d616e7920626964732c2064656c657465206f6044820152686e65206265666f726560b81b6064820152608401610297565b610e186040518060a0016040528060006001600160a01b031681526020016000815260200160006001600160a01b0316815260200160008152602001600081525090565b6001600160a01b038083168252602080830187905290851660408084019190915260608301859052600087815291829052812060040154608083015260055415610eb55760058054610e6c90600190611764565b81548110610e7c57610e7c6116db565b906000526020600020015490506005805480610e9a57610e9a61177b565b60019003818190600052602060002001600090559055610ed0565b5060038054906001906000610eca8385611791565b90915550505b6000958652602086815260408088206004908101805460018082018355918b52848b200185905593895283835297819020845181546001600160a01b03199081166001600160a01b03928316178355938601519482019490945590840151600282018054909316931692909217905560608201516003820155608090910151940193909355505050565b6000828152602081905260409020600101546001600160a01b0316610f915760405162461bcd60e51b815260040161029790611608565b6000828152602081905260409020546001600160a01b03163314610fc75760405162461bcd60e51b815260040161029790611649565b6000818152600160205260409020600201546001600160a01b0316610ffe5760405162461bcd60e51b815260040161029790611680565b61100781611277565b5050565b6000818152602081905260409020600101546001600160a01b03166110425760405162461bcd60e51b815260040161029790611608565b6000818152602081905260409020546001600160a01b031633146110785760405162461bcd60e51b815260040161029790611649565b60005b60008281526020819052604090206004015481101561115d576001600080600085815260200190815260200160002060040183815481106110be576110be6116db565b60009182526020808320909101548352828101939093526040918201812080546001600160a01b031990811682556001820183905560028201805490911690556003810182905560049081018290558582529281905220018054600591908390811061112c5761112c6116db565b6000918252602080832090910154835460018101855593835291209091015580611155816117a9565b91505061107b565b50600081815260208190526040812080546001600160a01b0319908116825560018201805490911690556002810182905560038101829055906111a360048301826114b2565b5050600480546001810182556000919091527f8a35acfbc15ff81a39ae7d344fd709f28e8600b4aa8c65c6b64bfe7fe36bd19b0155565b6000818152600160205260409020600201546001600160a01b03166112115760405162461bcd60e51b815260040161029790611680565b6000818152600160205260409020546001600160a01b031633146112775760405162461bcd60e51b815260206004820152601a60248201527f53706563696669656420626964206973206e6f7420796f7572730000000000006044820152606401610297565b6000818152600160208181526040808420808401548552848352908420938590529190526004908101549101805490919081106112b6576112b66116db565b600091825260208083209091018290558282526001908190526040822080546001600160a01b031990811682558183018490556002820180549091169055600381018390556004018290556005805491820181559091527f036b6384b5eca791c62761152d0c79bb0604c104a5fb6f4eb0703f3154bb3db00155565b6000818152602081905260409020600101546060906001600160a01b031661136c5760405162461bcd60e51b815260040161029790611608565b60008281526020818152604091829020600401805483518184028101840190945280845290918301828280156113c157602002820191906000526020600020905b8154815260200190600101908083116113ad575b50505050509050919050565b60005b60008281526020819052604090206004015481101561115d57600160008060008581526020019081526020016000206004018381548110611413576114136116db565b60009182526020808320909101548352828101939093526040918201812080546001600160a01b0319908116825560018201839055600282018054909116905560038101829055600490810182905585825292819052200180546005919083908110611481576114816116db565b60009182526020808320909101548354600181018555938352912090910155806114aa816117a9565b9150506113d0565b50805460008255906000526020600020908101906114d091906114d3565b50565b5b808211156114e857600081556001016114d4565b5090565b6000602082840312156114fe57600080fd5b5035919050565b6000806040838503121561151857600080fd5b50508035926020909101359150565b6000806040838503121561153a57600080fd5b823560ff8116811461154b57600080fd5b946020939093013593505050565b6001600160a01b03811681146114d057600080fd5b6000806040838503121561158157600080fd5b823561154b81611559565b6000806000606084860312156115a157600080fd5b8335925060208401356115b381611559565b929592945050506040919091013590565b6020808252825182820181905260009190848201906040850190845b818110156115fc578351835292840192918401916001016115e0565b50909695505050505050565b60208082526021908201527f5370656369666965642070726f706f73616c20646f6573206e6f7420657869736040820152601d60fa1b606082015260800190565b6020808252601f908201527f5370656369666965642070726f706f73616c206973206e6f7420796f75727300604082015260600190565b6020808252601c908201527f5370656369666965642062696420646f6573206e6f7420657869737400000000604082015260600190565b6000602082840312156116c957600080fd5b81516116d481611559565b9392505050565b634e487b7160e01b600052603260045260246000fd5b6020808252603f908201527f596f75206861766520746f20617070726f76652074686520746f6b656e20796f60408201527f752077616e7420746f207377617020746f207468697320636f6e747261637400606082015260800190565b634e487b7160e01b600052601160045260246000fd5b6000828210156117765761177661174e565b500390565b634e487b7160e01b600052603160045260246000fd5b600082198211156117a4576117a461174e565b500190565b60006000198214156117bd576117bd61174e565b506001019056fea26469706673582212202cdf23c24b5a97562b3034b656c39dceafaf9e8ac80be37b4be6863516cd3d0864736f6c63430008090033",
  "linkReferences": {},
  "deployedLinkReferences": {}
}