{
  "_format": "hh-sol-artifact-1",
  "contractName": "NFTSwap",
  "sourceName": "contracts/NFTSwap.sol",
  "abi": [
    {
      "inputs": [],
      "stateMutability": "nonpayable",
      "type": "constructor"
    },
    {
      "inputs": [
        {
          "internalType": "uint8",
          "name": "proposalId",
          "type": "uint8"
        },
        {
          "internalType": "address",
          "name": "bidderAddress",
          "type": "address"
        },
        {
          "internalType": "uint8",
          "name": "bidId",
          "type": "uint8"
        }
      ],
      "name": "acceptBid",
      "outputs": [],
      "stateMutability": "nonpayable",
      "type": "function"
    },
    {
      "inputs": [
        {
          "internalType": "uint8",
          "name": "proposalId",
          "type": "uint8"
        },
        {
          "internalType": "uint256",
          "name": "bidIndex",
          "type": "uint256"
        }
      ],
      "name": "acceptBid",
      "outputs": [],
      "stateMutability": "nonpayable",
      "type": "function"
    },
    {
      "inputs": [
        {
          "internalType": "address",
          "name": "",
          "type": "address"
        },
        {
          "internalType": "uint8",
          "name": "",
          "type": "uint8"
        }
      ],
      "name": "bids",
      "outputs": [
        {
          "components": [
            {
              "internalType": "address",
              "name": "proposerAddress",
              "type": "address"
            },
            {
              "internalType": "uint8",
              "name": "proposalId",
              "type": "uint8"
            }
          ],
          "internalType": "struct ProposalIdentifier",
          "name": "proposalRef",
          "type": "tuple"
        },
        {
          "internalType": "contract IERC721",
          "name": "nftAddress",
          "type": "address"
        },
        {
          "internalType": "uint256",
          "name": "tokenId",
          "type": "uint256"
        },
        {
          "internalType": "uint256",
          "name": "indexInProposal",
          "type": "uint256"
        }
      ],
      "stateMutability": "view",
      "type": "function"
    },
    {
      "inputs": [
        {
          "internalType": "uint8",
          "name": "bidId",
          "type": "uint8"
        }
      ],
      "name": "deleteBid",
      "outputs": [],
      "stateMutability": "nonpayable",
      "type": "function"
    },
    {
      "inputs": [
        {
          "internalType": "uint8",
          "name": "proposalId",
          "type": "uint8"
        }
      ],
      "name": "deleteProposal",
      "outputs": [],
      "stateMutability": "nonpayable",
      "type": "function"
    },
    {
      "inputs": [
        {
          "internalType": "address",
          "name": "proposerAddress",
          "type": "address"
        },
        {
          "internalType": "uint8",
          "name": "proposalId",
          "type": "uint8"
        },
        {
          "internalType": "uint256",
          "name": "index",
          "type": "uint256"
        }
      ],
      "name": "getBidFromProposal",
      "outputs": [
        {
          "components": [
            {
              "internalType": "address",
              "name": "bidderAddress",
              "type": "address"
            },
            {
              "internalType": "uint8",
              "name": "bidId",
              "type": "uint8"
            }
          ],
          "internalType": "struct BidIdentifier",
          "name": "bidRef",
          "type": "tuple"
        }
      ],
      "stateMutability": "view",
      "type": "function"
    },
    {
      "inputs": [
        {
          "internalType": "address",
          "name": "proposerAddress",
          "type": "address"
        },
        {
          "internalType": "uint8",
          "name": "proposalId",
          "type": "uint8"
        }
      ],
      "name": "getBidsFromProposal",
      "outputs": [
        {
          "components": [
            {
              "internalType": "address",
              "name": "bidderAddress",
              "type": "address"
            },
            {
              "internalType": "uint8",
              "name": "bidId",
              "type": "uint8"
            }
          ],
          "internalType": "struct BidIdentifier[]",
          "name": "bidsRef",
          "type": "tuple[]"
        }
      ],
      "stateMutability": "view",
      "type": "function"
    },
    {
      "inputs": [],
      "name": "helloWorld",
      "outputs": [
        {
          "internalType": "string",
          "name": "",
          "type": "string"
        }
      ],
      "stateMutability": "pure",
      "type": "function"
    },
    {
      "inputs": [
        {
          "internalType": "address",
          "name": "proposerAddress",
          "type": "address"
        },
        {
          "internalType": "uint8",
          "name": "proposalId",
          "type": "uint8"
        },
        {
          "internalType": "contract IERC721",
          "name": "bidNftAddress",
          "type": "address"
        },
        {
          "internalType": "uint256",
          "name": "bidNftTokenId",
          "type": "uint256"
        }
      ],
      "name": "makeBid",
      "outputs": [],
      "stateMutability": "nonpayable",
      "type": "function"
    },
    {
      "inputs": [
        {
          "internalType": "address",
          "name": "",
          "type": "address"
        },
        {
          "internalType": "uint8",
          "name": "",
          "type": "uint8"
        }
      ],
      "name": "proposals",
      "outputs": [
        {
          "internalType": "contract IERC721",
          "name": "nftAddress",
          "type": "address"
        },
        {
          "internalType": "uint256",
          "name": "tokenId",
          "type": "uint256"
        },
        {
          "internalType": "uint8",
          "name": "proposalId",
          "type": "uint8"
        }
      ],
      "stateMutability": "view",
      "type": "function"
    },
    {
      "inputs": [
        {
          "internalType": "contract IERC721",
          "name": "nftAddress",
          "type": "address"
        },
        {
          "internalType": "uint256",
          "name": "tokenId",
          "type": "uint256"
        }
      ],
      "name": "proposeSwap",
      "outputs": [],
      "stateMutability": "nonpayable",
      "type": "function"
    },
    {
      "inputs": [
        {
          "internalType": "uint8",
          "name": "proposalId",
          "type": "uint8"
        },
        {
          "internalType": "address",
          "name": "bidder",
          "type": "address"
        },
        {
          "internalType": "uint8",
          "name": "bidId",
          "type": "uint8"
        }
      ],
      "name": "refuseBid",
      "outputs": [],
      "stateMutability": "nonpayable",
      "type": "function"
    },
    {
      "inputs": [
        {
          "internalType": "uint8",
          "name": "proposalId",
          "type": "uint8"
        },
        {
          "internalType": "uint256",
          "name": "bidIndex",
          "type": "uint256"
        }
      ],
      "name": "refuseBid",
      "outputs": [],
      "stateMutability": "nonpayable",
      "type": "function"
    }
  ],
  "bytecode": "0x608060405234801561001057600080fd5b50611ee6806100206000396000f3fe608060405234801561001057600080fd5b50600436106100cf5760003560e01c806361bf8d9e1161008c578063c605f76c11610066578063c605f76c146102a7578063d0e7993c146102d4578063e38785bf146102e7578063edd008e3146102fa57600080fd5b806361bf8d9e1461023a578063a86213161461025a578063c160adf71461029457600080fd5b80630f27d31c146100d457806334bdcdd7146101805780633b3c80df1461019557806347158c90146101a85780634cc461eb146101bb5780634dd3de22146101ce575b600080fd5b61013b6100e2366004611b52565b6001602081815260009384526040808520825292845292829020825180840190935280546001600160a01b038082168552600160a01b90910460ff16948401949094529081015460028201546003909201549293169184565b6040805185516001600160a01b03908116825260209687015160ff169682019690965294909316928401929092526060830152608082015260a0015b60405180910390f35b61019361018e366004611b87565b61030d565b005b6101936101a3366004611ba9565b6105ac565b6101936101b6366004611b87565b610767565b6101936101c9366004611bd5565b6108cc565b6102126101dc366004611b52565b60006020818152928152604080822090935290815220805460018201546002909201546001600160a01b03909116919060ff1683565b604080516001600160a01b039094168452602084019290925260ff1690820152606001610177565b61024d610248366004611b52565b610cc2565b6040516101779190611c1a565b61026d610268366004611c7d565b610d9c565b6040805182516001600160a01b0316815260209283015160ff169281019290925201610177565b6101936102a2366004611cbb565b610eaf565b604080518082018252600b81526a12195b1b1bc815dbdc9b1960aa1b602082015290516101779190611cd7565b6101936102e2366004611d2c565b6112e4565b6101936102f5366004611bd5565b6116d7565b610193610308366004611cbb565b611884565b3360008181526020818152604080832060ff861684529091529020546001600160a01b03166103575760405162461bcd60e51b815260040161034e90611d7b565b60405180910390fd5b60005b6001600160a01b03821660009081526020818152604080832060ff871684529091529020600301548110156104fb576001600160a01b03821660009081526020818152604080832060ff87168452909152812060030180546001929190849081106103c7576103c7611dbc565b60009182526020808320909101546001600160a01b0390811684528382019490945260409283018220938616825281815282822060ff88168352905290812060030180548490811061041b5761041b611dbc565b600091825260208083209091015460ff600160a01b90910481168452838201949094526040928301822080546001600160a81b03191681556001810180546001600160a01b03191690556002810183905560039081018390556001600160a01b038716835282825283832094881683529390522001805460059190839081106104a6576104a6611dbc565b6000918252602080832090910154835460018101855593835291819020908304018054601f9093166101000a60ff600160a01b90930483168102920219909216179055806104f381611de8565b91505061035a565b506001600160a01b03811660009081526020818152604080832060ff86168452909152812080546001600160a01b03191681556001810182905560028101805460ff191690559061054f6003830182611ae3565b505060048054600181018255600091909152602081047f8a35acfbc15ff81a39ae7d344fd709f28e8600b4aa8c65c6b64bfe7fe36bd19b01805460ff948516601f9093166101000a92830294909202199091169290921790915550565b60045433901515806105da57506001600160a01b03811660009081526002602052604090205460ff90811611155b61063d5760405162461bcd60e51b815260206004820152602e60248201527f596f75206861766520746f6f206d616e792070726f706f73616c732c2064656c60448201526d657465206f6e65206265666f726560901b606482015260840161034e565b600454600090156106ca576004805461065890600190611e03565b8154811061066857610668611dbc565b90600052602060002090602091828204019190069054906101000a900460ff169050600480548061069b5761069b611e1a565b60019003818190600052602060002090602091828204019190066101000a81549060ff02191690559055610710565b506001600160a01b0381166000908152600260205260408120805460ff1691600191906106f78385611e30565b92506101000a81548160ff021916908360ff1602179055505b6001600160a01b0391821660009081526020818152604080832060ff9490941680845293909152902080546001600160a01b031916949092169390931781556001810191909155600201805460ff19169091179055565b33600081815260016020818152604080842060ff8716855290915290912001546001600160a01b03166107ac5760405162461bcd60e51b815260040161034e90611e55565b6001600160a01b03808216600090815260016020908152604080832060ff80881680865282855283862080549788168752868652848720600160a01b90980490921686529584529184209490935291905260039081015491018054909190811061081857610818611dbc565b6000918252602080832090910180546001600160a81b03199081169091556001600160a01b039390931682526001808252604080842060ff9687168086529084529084208054909516855584820180546001600160a01b031916905560028501849055600390940183905560058054918201815590925281047f036b6384b5eca791c62761152d0c79bb0604c104a5fb6f4eb0703f3154bb3db0018054601f9092166101000a928302929093021916179055565b3360008181526020818152604080832060ff881684529091529020546001600160a01b031661090d5760405162461bcd60e51b815260040161034e90611d7b565b6001600160a01b03838116600090815260016020818152604080842060ff881685529091529091200154166109545760405162461bcd60e51b815260040161034e90611e55565b6001600160a01b0381811660009081526020818152604080832060ff898116855290835281842080546001918201548a88168752828652848720938a1687529290945293829020938401546002909401549151632142170760e11b8152928516949093169184906342842e0e906109d39088908b908890600401611e8c565b600060405180830381600087803b1580156109ed57600080fd5b505af1158015610a01573d6000803e3d6000fd5b5050604051632142170760e11b81526001600160a01b03851692506342842e0e9150610a35908a9089908690600401611e8c565b600060405180830381600087803b158015610a4f57600080fd5b505af1158015610a63573d6000803e3d6000fd5b5050505060005b6001600160a01b03861660009081526020818152604080832060ff8d168452909152902060030154811015610c0b576001600160a01b03861660009081526020818152604080832060ff8d16845290915281206003018054600192919084908110610ad757610ad7611dbc565b60009182526020808320909101546001600160a01b0390811684528382019490945260409283018220938a16825281815282822060ff8e1683529052908120600301805484908110610b2b57610b2b611dbc565b600091825260208083209091015460ff600160a01b90910481168452838201949094526040928301822080546001600160a81b03191681556001810180546001600160a01b03191690556002810183905560039081018390556001600160a01b038b168352828252838320948e168352939052200180546005919083908110610bb657610bb6611dbc565b6000918252602080832090910154835460018101855593835291819020908304018054601f9093166101000a60ff600160a01b9093048316810292021990921617905580610c0381611de8565b915050610a6a565b506001600160a01b03851660009081526020818152604080832060ff8c168452909152812080546001600160a01b03191681556001810182905560028101805460ff1916905590610c5f6003830182611ae3565b505060048054600181018255600091909152602081047f8a35acfbc15ff81a39ae7d344fd709f28e8600b4aa8c65c6b64bfe7fe36bd19b01805460ff9a8b16601f9093166101000a9283029a909202199091169890981790975550505050505050565b6001600160a01b0382811660009081526020818152604080832060ff8616845290915290205460609116610d085760405162461bcd60e51b815260040161034e90611d7b565b6001600160a01b03831660009081526020818152604080832060ff86168452825280832060030180548251818502810185019093528083529193909284015b82821015610d9057600084815260209081902060408051808201909152908401546001600160a01b0381168252600160a01b900460ff1681830152825260019092019101610d47565b50505050905092915050565b60408051808201909152600080825260208201526001600160a01b0384811660009081526020818152604080832060ff8816845290915290205416610df35760405162461bcd60e51b815260040161034e90611d7b565b6001600160a01b03841660009081526020818152604080832060ff871684529091529020600301548210610e395760405162461bcd60e51b815260040161034e90611e55565b6001600160a01b03841660009081526020818152604080832060ff871684529091529020600301805483908110610e7257610e72611dbc565b6000918252602091829020604080518082019091529101546001600160a01b0381168252600160a01b900460ff1691810191909152949350505050565b3360008181526020818152604080832060ff871684529091529020546001600160a01b0316610ef05760405162461bcd60e51b815260040161034e90611d7b565b6001600160a01b03811660009081526020818152604080832060ff871684529091528120600301805484908110610f2957610f29611dbc565b6000918252602090912001546001600160a01b03161415610f5c5760405162461bcd60e51b815260040161034e90611e55565b6001600160a01b03811660009081526020818152604080832060ff871684529091528120600301805484908110610f9557610f95611dbc565b6000918252602080832060408051808201825293909101546001600160a01b03808216855260ff600160a01b909204821685850190815288821687528685528387208b8416885285528387208054600191820154885185168a52828852868a20845187168b528852868a20830154895186168b52928852868a209351909516895291909552958390206002015485519351632142170760e11b8152959750958116959194931692909185916342842e0e91611057918a91908890600401611e8c565b600060405180830381600087803b15801561107157600080fd5b505af1158015611085573d6000803e3d6000fd5b50508651604051632142170760e11b81526001600160a01b03861693506342842e0e92506110ba91908a908690600401611e8c565b600060405180830381600087803b1580156110d457600080fd5b505af11580156110e8573d6000803e3d6000fd5b5050505060005b6001600160a01b03871660009081526020818152604080832060ff8d168452909152902060030154811015611290576001600160a01b03871660009081526020818152604080832060ff8d1684529091528120600301805460019291908490811061115c5761115c611dbc565b60009182526020808320909101546001600160a01b0390811684528382019490945260409283018220938b16825281815282822060ff8e16835290529081206003018054849081106111b0576111b0611dbc565b600091825260208083209091015460ff600160a01b90910481168452838201949094526040928301822080546001600160a81b03191681556001810180546001600160a01b03191690556002810183905560039081018390556001600160a01b038c168352828252838320948e16835293905220018054600591908390811061123b5761123b611dbc565b6000918252602080832090910154835460018101855593835291819020908304018054601f9093166101000a60ff600160a01b909304831681029202199092161790558061128881611de8565b9150506110ef565b506001600160a01b03861660009081526020818152604080832060ff8c168452909152812080546001600160a01b03191681556001810182905560028101805460ff1916905590610c5f6003830182611ae3565b6001600160a01b0384811660009081526020818152604080832060ff88168452909152902054166113275760405162461bcd60e51b815260040161034e90611d7b565b600554339015158061135557506001600160a01b03811660009081526003602052604090205460ff90811611155b6113b35760405162461bcd60e51b815260206004820152602960248201527f596f75206861766520746f6f206d616e7920626964732c2064656c657465206f6044820152686e65206265666f726560b81b606482015260840161034e565b6040805160c08101825260006080820181815260a083018290528252602080830182815283850183815260608501848152865180880188526001600160a01b038d811680835260ff8e16838801819052838a52918d16909552928a90529285528484528685209185529252938220600301549052600554919291156114b4576005805461144290600190611e03565b8154811061145257611452611dbc565b90600052602060002090602091828204019190069054906101000a900460ff169050600580548061148557611485611e1a565b60019003818190600052602060002090602091828204019190066101000a81549060ff021916905590556114fa565b506001600160a01b0383166000908152600360205260408120805460ff1691600191906114e18385611e30565b92506101000a81548160ff021916908360ff1602179055505b60408051808201909152600080825260208201528481600001906001600160a01b031690816001600160a01b03168152505081816020019060ff16908160ff16815250506000808a6001600160a01b03166001600160a01b0316815260200190815260200160002060008960ff1660ff168152602001908152602001600020600301819080600181540180825580915050600190039060005260206000200160009091909190915060008201518160000160006101000a8154816001600160a01b0302191690836001600160a01b0316021790555060208201518160000160146101000a81548160ff021916908360ff16021790555050508360016000876001600160a01b03166001600160a01b0316815260200190815260200160002060008460ff1660ff16815260200190815260200160002060008201518160000160008201518160000160006101000a8154816001600160a01b0302191690836001600160a01b0316021790555060208201518160000160146101000a81548160ff021916908360ff160217905550505060208201518160010160006101000a8154816001600160a01b0302191690836001600160a01b031602179055506040820151816002015560608201518160030155905050505050505050505050565b3360008181526020818152604080832060ff881684529091529020546001600160a01b03166117185760405162461bcd60e51b815260040161034e90611d7b565b6001600160a01b03838116600090815260016020818152604080842060ff8816855290915290912001541661175f5760405162461bcd60e51b815260040161034e90611e55565b6001600160a01b03808416600090815260016020908152604080832060ff80881680865282855283862080549788168752868652848720600160a01b9098049092168652958452918420949093529190526003908101549101805490919081106117cb576117cb611dbc565b6000918252602080832090910180546001600160a81b03199081169091556001600160a01b039590951682526001808252604080842060ff9687168086529084529084208054909716875586820180546001600160a01b031916905560028701849055600390960183905560058054918201815590925281047f036b6384b5eca791c62761152d0c79bb0604c104a5fb6f4eb0703f3154bb3db0018054601f9092166101000a9485029490930219169290921790555050565b3360008181526020818152604080832060ff871684529091529020546001600160a01b03166118c55760405162461bcd60e51b815260040161034e90611d7b565b6001600160a01b03811660009081526020818152604080832060ff8716845290915281206003018054849081106118fe576118fe611dbc565b6000918252602090912001546001600160a01b031614156119315760405162461bcd60e51b815260040161034e90611e55565b6001600160a01b03811660009081526020818152604080832060ff87168452909152812060030180548490811061196a5761196a611dbc565b6000918252602080832060408051808201825291909301546001600160a01b0380821680845260ff600160a01b9384900481168587019081529188526001808752878920835183168a5287528789205484168952888752878920865185168a52818852888a20845184168b528852888a2054959095048216895293865286882085519093168852928552858720905190921686529252919092206003908101549201805491935091908110611a2157611a21611dbc565b6000918252602080832090910180546001600160a81b031990811690915583516001600160a01b0316835260018083526040808520958401805160ff90811687529685529085208054909316835582820180546001600160a01b031916905560028301859055600390920184905590516005805492830181559093529081047f036b6384b5eca791c62761152d0c79bb0604c104a5fb6f4eb0703f3154bb3db0018054928416601f9092166101000a9182029190930219909116179055505050565b5080546000825590600052602060002090810190611b019190611b04565b50565b5b80821115611b235780546001600160a81b0319168155600101611b05565b5090565b6001600160a01b0381168114611b0157600080fd5b803560ff81168114611b4d57600080fd5b919050565b60008060408385031215611b6557600080fd5b8235611b7081611b27565b9150611b7e60208401611b3c565b90509250929050565b600060208284031215611b9957600080fd5b611ba282611b3c565b9392505050565b60008060408385031215611bbc57600080fd5b8235611bc781611b27565b946020939093013593505050565b600080600060608486031215611bea57600080fd5b611bf384611b3c565b92506020840135611c0381611b27565b9150611c1160408501611b3c565b90509250925092565b602080825282518282018190526000919060409081850190868401855b82811015611c7057611c6084835180516001600160a01b0316825260209081015160ff16910152565b9284019290850190600101611c37565b5091979650505050505050565b600080600060608486031215611c9257600080fd5b8335611c9d81611b27565b9250611cab60208501611b3c565b9150604084013590509250925092565b60008060408385031215611cce57600080fd5b611bc783611b3c565b600060208083528351808285015260005b81811015611d0457858101830151858201604001528201611ce8565b81811115611d16576000604083870101525b50601f01601f1916929092016040019392505050565b60008060008060808587031215611d4257600080fd5b8435611d4d81611b27565b9350611d5b60208601611b3c565b92506040850135611d6b81611b27565b9396929550929360600135925050565b60208082526021908201527f5370656369666965642070726f706f73616c20646f6573206e6f7420657869736040820152601d60fa1b606082015260800190565b634e487b7160e01b600052603260045260246000fd5b634e487b7160e01b600052601160045260246000fd5b6000600019821415611dfc57611dfc611dd2565b5060010190565b600082821015611e1557611e15611dd2565b500390565b634e487b7160e01b600052603160045260246000fd5b600060ff821660ff84168060ff03821115611e4d57611e4d611dd2565b019392505050565b6020808252601c908201527f5370656369666965642062696420646f6573206e6f7420657869737400000000604082015260600190565b6001600160a01b03938416815291909216602082015260408101919091526060019056fea2646970667358221220014d9944507a92da7e45af26b102ccd55e50cc9bc348b1c5784828e5b99dc12864736f6c63430008090033",
  "linkReferences": {},
  "deployedLinkReferences": {}
}