{
  "_format": "hh-sol-artifact-1",
  "contractName": "NFTSwap",
  "sourceName": "contracts/NFTSwap.sol",
  "abi": [
    {
      "inputs": [],
      "stateMutability": "nonpayable",
      "type": "constructor"
    },
    {
      "inputs": [
        {
          "internalType": "uint256",
          "name": "proposalId",
          "type": "uint256"
        },
        {
          "internalType": "uint256",
          "name": "bidId",
          "type": "uint256"
        }
      ],
      "name": "acceptBid",
      "outputs": [],
      "stateMutability": "nonpayable",
      "type": "function"
    },
    {
      "inputs": [
        {
          "internalType": "uint256",
          "name": "",
          "type": "uint256"
        }
      ],
      "name": "bids",
      "outputs": [
        {
          "internalType": "address",
          "name": "bidder",
          "type": "address"
        },
        {
          "internalType": "uint256",
          "name": "proposalRef",
          "type": "uint256"
        },
        {
          "internalType": "contract IERC721",
          "name": "nftAddress",
          "type": "address"
        },
        {
          "internalType": "uint256",
          "name": "tokenId",
          "type": "uint256"
        },
        {
          "internalType": "uint256",
          "name": "indexInProposal",
          "type": "uint256"
        }
      ],
      "stateMutability": "view",
      "type": "function"
    },
    {
      "inputs": [],
      "name": "bidsCount",
      "outputs": [
        {
          "internalType": "uint256",
          "name": "",
          "type": "uint256"
        }
      ],
      "stateMutability": "view",
      "type": "function"
    },
    {
      "inputs": [
        {
          "internalType": "uint256",
          "name": "",
          "type": "uint256"
        }
      ],
      "name": "bidsGaps",
      "outputs": [
        {
          "internalType": "uint256",
          "name": "",
          "type": "uint256"
        }
      ],
      "stateMutability": "view",
      "type": "function"
    },
    {
      "inputs": [
        {
          "internalType": "uint256",
          "name": "bidId",
          "type": "uint256"
        }
      ],
      "name": "deleteBid",
      "outputs": [],
      "stateMutability": "nonpayable",
      "type": "function"
    },
    {
      "inputs": [
        {
          "internalType": "uint256",
          "name": "proposalId",
          "type": "uint256"
        }
      ],
      "name": "deleteProposal",
      "outputs": [],
      "stateMutability": "nonpayable",
      "type": "function"
    },
    {
      "inputs": [
        {
          "internalType": "uint8",
          "name": "proposalId",
          "type": "uint8"
        },
        {
          "internalType": "uint256",
          "name": "index",
          "type": "uint256"
        }
      ],
      "name": "getBidFromProposal",
      "outputs": [
        {
          "internalType": "uint256",
          "name": "bidRef",
          "type": "uint256"
        }
      ],
      "stateMutability": "view",
      "type": "function"
    },
    {
      "inputs": [
        {
          "internalType": "uint256",
          "name": "proposalId",
          "type": "uint256"
        }
      ],
      "name": "getBidsFromProposal",
      "outputs": [
        {
          "internalType": "uint256[]",
          "name": "bidsRef",
          "type": "uint256[]"
        }
      ],
      "stateMutability": "view",
      "type": "function"
    },
    {
      "inputs": [
        {
          "internalType": "uint256",
          "name": "proposalId",
          "type": "uint256"
        },
        {
          "internalType": "contract IERC721",
          "name": "bidNftAddress",
          "type": "address"
        },
        {
          "internalType": "uint256",
          "name": "bidNftTokenId",
          "type": "uint256"
        }
      ],
      "name": "makeBid",
      "outputs": [],
      "stateMutability": "nonpayable",
      "type": "function"
    },
    {
      "inputs": [
        {
          "internalType": "contract IERC721",
          "name": "nftAddress",
          "type": "address"
        },
        {
          "internalType": "uint256",
          "name": "tokenId",
          "type": "uint256"
        }
      ],
      "name": "makeProposal",
      "outputs": [],
      "stateMutability": "nonpayable",
      "type": "function"
    },
    {
      "inputs": [
        {
          "internalType": "uint256",
          "name": "",
          "type": "uint256"
        }
      ],
      "name": "proposals",
      "outputs": [
        {
          "internalType": "address",
          "name": "proposer",
          "type": "address"
        },
        {
          "internalType": "contract IERC721",
          "name": "nftAddress",
          "type": "address"
        },
        {
          "internalType": "uint256",
          "name": "tokenId",
          "type": "uint256"
        },
        {
          "internalType": "uint256",
          "name": "proposalId",
          "type": "uint256"
        }
      ],
      "stateMutability": "view",
      "type": "function"
    },
    {
      "inputs": [],
      "name": "proposalsCount",
      "outputs": [
        {
          "internalType": "uint256",
          "name": "",
          "type": "uint256"
        }
      ],
      "stateMutability": "view",
      "type": "function"
    },
    {
      "inputs": [
        {
          "internalType": "uint256",
          "name": "",
          "type": "uint256"
        }
      ],
      "name": "proposalsGaps",
      "outputs": [
        {
          "internalType": "uint256",
          "name": "",
          "type": "uint256"
        }
      ],
      "stateMutability": "view",
      "type": "function"
    },
    {
      "inputs": [
        {
          "internalType": "uint256",
          "name": "proposalId",
          "type": "uint256"
        },
        {
          "internalType": "uint256",
          "name": "bidId",
          "type": "uint256"
        }
      ],
      "name": "refuseBid",
      "outputs": [],
      "stateMutability": "nonpayable",
      "type": "function"
    }
  ],
  "bytecode": "0x60806040526001600255600160035534801561001a57600080fd5b5061144c8061002a6000396000f3fe608060405234801561001057600080fd5b50600436106100ea5760003560e01c8063655e9da41161008c5780638b927926116100665780638b927926146102795780638bebfca91461028c578063a8f981161461029f578063dbab5cfb146102b257600080fd5b8063655e9da4146102405780637aa39ee5146102535780638259d5531461026657600080fd5b80632d0e4086116100c85780632d0e40861461018d5780633fbffcef146101a05780634423c5f1146101a95780634e054d8d1461022d57600080fd5b8063013cf08b146100ef57806302e9d5e4146101615780630a9f46ad14610176575b600080fd5b6101316100fd36600461119b565b60006020819052908152604090208054600182015460028301546003909301546001600160a01b0392831693919092169184565b604080516001600160a01b0395861681529490931660208501529183015260608201526080015b60405180910390f35b61017461016f3660046111b4565b6102d2565b005b61017f60025481565b604051908152602001610158565b61017f61019b3660046111d6565b6108e1565b61017f60035481565b6101f46101b736600461119b565b6001602081905260009182526040909120805491810154600282015460038301546004909301546001600160a01b03948516949293919092169185565b604080516001600160a01b039687168152602081019590955292909416918301919091526060820152608081019190915260a001610158565b61017461023b36600461121d565b61098a565b61017461024e36600461123b565b610a58565b6101746102613660046111b4565b610bd8565b61017461027436600461119b565b610c89565b61017f61028736600461119b565b610e58565b61017461029a36600461119b565b610e79565b61017f6102ad36600461119b565b610fd1565b6102c56102c036600461119b565b610fe1565b6040516101589190611273565b60008181526001602081815260408084205486855291849052909220015433916001600160a01b0390811691166103245760405162461bcd60e51b815260040161031b906112b7565b60405180910390fd5b6000848152602081905260409020546001600160a01b0383811691161461035d5760405162461bcd60e51b815260040161031b906112f8565b6000838152600160205260409020600201546001600160a01b03166103945760405162461bcd60e51b815260040161031b9061132f565b60008481526020818152604080832060018082015460029283015489875291909452938290209081015460039091015491516331a9108f60e11b8152600481018590526001600160a01b03938416949391821692918716908590636352211e9060240160206040518083038186803b15801561040f57600080fd5b505afa158015610423573d6000803e3d6000fd5b505050506040513d601f19601f820116820180604052508101906104479190611366565b6001600160a01b0316146104a65761045e8861107c565b60405162461bcd60e51b815260206004820152601e60248201527f596f7520646f206e6f74206f776e20746865206e667420616e796d6f72650000604482015260640161031b565b60405163020604bf60e21b81526004810184905230906001600160a01b0386169063081812fc9060240160206040518083038186803b1580156104e857600080fd5b505afa1580156104fc573d6000803e3d6000fd5b505050506040513d601f19601f820116820180604052508101906105209190611366565b6001600160a01b0316146105b5576105378861107c565b60405162461bcd60e51b815260206004820152604760248201527f596f752072656d6f76656420617070726f76616c20666f7220746865206e667460448201527f20746f207468697320636f6e74726163742c20706c656173652072652d6170706064820152661c9bdd99481a5d60ca1b608482015260a40161031b565b6040516331a9108f60e11b8152600481018290526001600160a01b038087169190841690636352211e9060240160206040518083038186803b1580156105fa57600080fd5b505afa15801561060e573d6000803e3d6000fd5b505050506040513d601f19601f820116820180604052508101906106329190611366565b6001600160a01b0316146106a15761064987610f16565b60405162461bcd60e51b815260206004820152602760248201527f5468652062696464657220646f6573206e6f74206f776e20746865206e667420604482015266616e796d6f726560c81b606482015260840161031b565b60405163020604bf60e21b81526004810182905230906001600160a01b0384169063081812fc9060240160206040518083038186803b1580156106e357600080fd5b505afa1580156106f7573d6000803e3d6000fd5b505050506040513d601f19601f8201168201806040525081019061071b9190611366565b6001600160a01b0316146107fa5761073287610f16565b60405162461bcd60e51b815260206004820152608560248201527f546865206269646465722072656d6f76656420617070726f76616c20666f722060448201527f74686520626964646564206e667420746f207468697320636f6e74726163742e60648201527f20496d706f737369626c6520746f20636f6d706c65746520746865207377617060848201527f20756e74696c20746865206269646465722072652d617070726f76657320746860a48201526419481b999d60da1b60c482015260e40161031b565b604051632142170760e11b81526001600160a01b0387811660048301528681166024830152604482018590528516906342842e0e90606401600060405180830381600087803b15801561084c57600080fd5b505af1158015610860573d6000803e3d6000fd5b5050604051632142170760e11b81526001600160a01b038881166004830152898116602483015260448201859052851692506342842e0e9150606401600060405180830381600087803b1580156108b657600080fd5b505af11580156108ca573d6000803e3d6000fd5b505050506108d78861107c565b5050505050505050565b60ff82166000908152602081905260408120600101546001600160a01b031661091c5760405162461bcd60e51b815260040161031b906112b7565b60ff831660009081526020819052604090206004015482106109505760405162461bcd60e51b815260040161031b9061132f565b60ff831660009081526020819052604090206004018054839081106109775761097761138a565b9060005260206000200154905092915050565b6004543390600090156109f057600480546109a7906001906113b6565b815481106109b7576109b761138a565b9060005260206000200154905060048054806109d5576109d56113cd565b60019003818190600052602060002001600090559055610a0b565b5060028054906001906000610a0583856113e3565b90915550505b600081815260208190526040902080546001600160a01b039384166001600160a01b0319918216178255600182018054969094169516949094179091556002830191909155600390910155565b6000838152602081905260409020600101546001600160a01b0316610a8f5760405162461bcd60e51b815260040161031b906112b7565b6040805160a0810182526000608082018181523380845260208085018990526001600160a01b038816858701526060850187905288845283905293822060040154905260055415610b335760058054610aea906001906113b6565b81548110610afa57610afa61138a565b906000526020600020015490506005805480610b1857610b186113cd565b60019003818190600052602060002001600090559055610b4e565b5060038054906001906000610b4883856113e3565b90915550505b6000958652602086815260408088206004908101805460018082018355918b52848b200185905593895283835297819020845181546001600160a01b03199081166001600160a01b03928316178355938601519482019490945590840151600282018054909316931692909217905560608201516003820155608090910151940193909355505050565b6000828152602081905260409020600101546001600160a01b0316610c0f5760405162461bcd60e51b815260040161031b906112b7565b6000828152602081905260409020546001600160a01b03163314610c455760405162461bcd60e51b815260040161031b906112f8565b6000818152600160205260409020600201546001600160a01b0316610c7c5760405162461bcd60e51b815260040161031b9061132f565b610c8581610f16565b5050565b6000818152602081905260409020600101546001600160a01b0316610cc05760405162461bcd60e51b815260040161031b906112b7565b6000818152602081905260409020546001600160a01b03163314610cf65760405162461bcd60e51b815260040161031b906112f8565b60005b600082815260208190526040902060040154811015610ddb57600160008060008581526020019081526020016000206004018381548110610d3c57610d3c61138a565b60009182526020808320909101548352828101939093526040918201812080546001600160a01b0319908116825560018201839055600282018054909116905560038101829055600490810182905585825292819052200180546005919083908110610daa57610daa61138a565b6000918252602080832090910154835460018101855593835291209091015580610dd3816113fb565b915050610cf9565b50600081815260208190526040812080546001600160a01b031990811682556001820180549091169055600281018290556003810182905590610e216004830182611161565b5050600480546001810182556000919091527f8a35acfbc15ff81a39ae7d344fd709f28e8600b4aa8c65c6b64bfe7fe36bd19b0155565b60058181548110610e6857600080fd5b600091825260209091200154905081565b6000818152600160205260409020600201546001600160a01b0316610eb05760405162461bcd60e51b815260040161031b9061132f565b6000818152600160205260409020546001600160a01b03163314610f165760405162461bcd60e51b815260206004820152601a60248201527f53706563696669656420626964206973206e6f7420796f757273000000000000604482015260640161031b565b600081815260016020818152604080842080840154855284835290842093859052919052600490810154910180549091908110610f5557610f5561138a565b600091825260208083209091018290558282526001908190526040822080546001600160a01b031990811682558183018490556002820180549091169055600381018390556004018290556005805491820181559091527f036b6384b5eca791c62761152d0c79bb0604c104a5fb6f4eb0703f3154bb3db00155565b60048181548110610e6857600080fd5b6000818152602081905260409020600101546060906001600160a01b031661101b5760405162461bcd60e51b815260040161031b906112b7565b600082815260208181526040918290206004018054835181840281018401909452808452909183018282801561107057602002820191906000526020600020905b81548152602001906001019080831161105c575b50505050509050919050565b60005b600082815260208190526040902060040154811015610ddb576001600080600085815260200190815260200160002060040183815481106110c2576110c261138a565b60009182526020808320909101548352828101939093526040918201812080546001600160a01b03199081168255600182018390556002820180549091169055600381018290556004908101829055858252928190522001805460059190839081106111305761113061138a565b6000918252602080832090910154835460018101855593835291209091015580611159816113fb565b91505061107f565b508054600082559060005260206000209081019061117f9190611182565b50565b5b808211156111975760008155600101611183565b5090565b6000602082840312156111ad57600080fd5b5035919050565b600080604083850312156111c757600080fd5b50508035926020909101359150565b600080604083850312156111e957600080fd5b823560ff811681146111fa57600080fd5b946020939093013593505050565b6001600160a01b038116811461117f57600080fd5b6000806040838503121561123057600080fd5b82356111fa81611208565b60008060006060848603121561125057600080fd5b83359250602084013561126281611208565b929592945050506040919091013590565b6020808252825182820181905260009190848201906040850190845b818110156112ab5783518352928401929184019160010161128f565b50909695505050505050565b60208082526021908201527f5370656369666965642070726f706f73616c20646f6573206e6f7420657869736040820152601d60fa1b606082015260800190565b6020808252601f908201527f5370656369666965642070726f706f73616c206973206e6f7420796f75727300604082015260600190565b6020808252601c908201527f5370656369666965642062696420646f6573206e6f7420657869737400000000604082015260600190565b60006020828403121561137857600080fd5b815161138381611208565b9392505050565b634e487b7160e01b600052603260045260246000fd5b634e487b7160e01b600052601160045260246000fd5b6000828210156113c8576113c86113a0565b500390565b634e487b7160e01b600052603160045260246000fd5b600082198211156113f6576113f66113a0565b500190565b600060001982141561140f5761140f6113a0565b506001019056fea2646970667358221220db5d17bd94f56a8e7b93de0860923a2b50df2cdb5233089d7f91cc264d0b6bd064736f6c63430008090033",
  "linkReferences": {},
  "deployedLinkReferences": {}
}