{
  "_format": "hh-sol-artifact-1",
  "contractName": "NFTSwap",
  "sourceName": "contracts/NFTSwap.sol",
  "abi": [
    {
      "inputs": [],
      "stateMutability": "nonpayable",
      "type": "constructor"
    },
    {
      "inputs": [
        {
          "internalType": "uint8",
          "name": "proposalId",
          "type": "uint8"
        },
        {
          "internalType": "address",
          "name": "bidderAddress",
          "type": "address"
        },
        {
          "internalType": "uint8",
          "name": "bidId",
          "type": "uint8"
        }
      ],
      "name": "acceptBid",
      "outputs": [],
      "stateMutability": "nonpayable",
      "type": "function"
    },
    {
      "inputs": [
        {
          "internalType": "uint8",
          "name": "proposalId",
          "type": "uint8"
        },
        {
          "internalType": "uint256",
          "name": "bidIndex",
          "type": "uint256"
        }
      ],
      "name": "acceptBid",
      "outputs": [],
      "stateMutability": "nonpayable",
      "type": "function"
    },
    {
      "inputs": [
        {
          "internalType": "address",
          "name": "",
          "type": "address"
        },
        {
          "internalType": "uint8",
          "name": "",
          "type": "uint8"
        }
      ],
      "name": "bids",
      "outputs": [
        {
          "components": [
            {
              "internalType": "address",
              "name": "proposerAddress",
              "type": "address"
            },
            {
              "internalType": "uint8",
              "name": "proposalId",
              "type": "uint8"
            }
          ],
          "internalType": "struct ProposalIdentifier",
          "name": "proposalRef",
          "type": "tuple"
        },
        {
          "internalType": "contract IERC721",
          "name": "nftAddress",
          "type": "address"
        },
        {
          "internalType": "uint256",
          "name": "tokenId",
          "type": "uint256"
        },
        {
          "internalType": "uint256",
          "name": "indexInProposal",
          "type": "uint256"
        }
      ],
      "stateMutability": "view",
      "type": "function"
    },
    {
      "inputs": [
        {
          "internalType": "uint8",
          "name": "bidId",
          "type": "uint8"
        }
      ],
      "name": "deleteBid",
      "outputs": [],
      "stateMutability": "nonpayable",
      "type": "function"
    },
    {
      "inputs": [
        {
          "internalType": "uint8",
          "name": "proposalId",
          "type": "uint8"
        }
      ],
      "name": "deleteProposal",
      "outputs": [],
      "stateMutability": "nonpayable",
      "type": "function"
    },
    {
      "inputs": [
        {
          "internalType": "address",
          "name": "proposerAddress",
          "type": "address"
        },
        {
          "internalType": "uint8",
          "name": "proposalId",
          "type": "uint8"
        },
        {
          "internalType": "uint256",
          "name": "index",
          "type": "uint256"
        }
      ],
      "name": "getBidFromProposal",
      "outputs": [
        {
          "components": [
            {
              "internalType": "address",
              "name": "bidderAddress",
              "type": "address"
            },
            {
              "internalType": "uint8",
              "name": "bidId",
              "type": "uint8"
            }
          ],
          "internalType": "struct BidIdentifier",
          "name": "bidRef",
          "type": "tuple"
        }
      ],
      "stateMutability": "view",
      "type": "function"
    },
    {
      "inputs": [
        {
          "internalType": "address",
          "name": "proposerAddress",
          "type": "address"
        },
        {
          "internalType": "uint8",
          "name": "proposalId",
          "type": "uint8"
        }
      ],
      "name": "getBidsFromProposal",
      "outputs": [
        {
          "components": [
            {
              "internalType": "address",
              "name": "bidderAddress",
              "type": "address"
            },
            {
              "internalType": "uint8",
              "name": "bidId",
              "type": "uint8"
            }
          ],
          "internalType": "struct BidIdentifier[]",
          "name": "bidsRef",
          "type": "tuple[]"
        }
      ],
      "stateMutability": "view",
      "type": "function"
    },
    {
      "inputs": [
        {
          "internalType": "address",
          "name": "proposerAddress",
          "type": "address"
        },
        {
          "internalType": "uint8",
          "name": "proposalId",
          "type": "uint8"
        },
        {
          "internalType": "contract IERC721",
          "name": "bidNftAddress",
          "type": "address"
        },
        {
          "internalType": "uint256",
          "name": "bidNftTokenId",
          "type": "uint256"
        }
      ],
      "name": "makeBid",
      "outputs": [],
      "stateMutability": "nonpayable",
      "type": "function"
    },
    {
      "inputs": [
        {
          "internalType": "contract IERC721",
          "name": "nftAddress",
          "type": "address"
        },
        {
          "internalType": "uint256",
          "name": "tokenId",
          "type": "uint256"
        }
      ],
      "name": "makeProposal",
      "outputs": [],
      "stateMutability": "nonpayable",
      "type": "function"
    },
    {
      "inputs": [
        {
          "internalType": "address",
          "name": "",
          "type": "address"
        },
        {
          "internalType": "uint8",
          "name": "",
          "type": "uint8"
        }
      ],
      "name": "proposals",
      "outputs": [
        {
          "internalType": "contract IERC721",
          "name": "nftAddress",
          "type": "address"
        },
        {
          "internalType": "uint256",
          "name": "tokenId",
          "type": "uint256"
        },
        {
          "internalType": "uint8",
          "name": "proposalId",
          "type": "uint8"
        }
      ],
      "stateMutability": "view",
      "type": "function"
    },
    {
      "inputs": [
        {
          "internalType": "uint8",
          "name": "proposalId",
          "type": "uint8"
        },
        {
          "internalType": "address",
          "name": "bidder",
          "type": "address"
        },
        {
          "internalType": "uint8",
          "name": "bidId",
          "type": "uint8"
        }
      ],
      "name": "refuseBid",
      "outputs": [],
      "stateMutability": "nonpayable",
      "type": "function"
    },
    {
      "inputs": [
        {
          "internalType": "uint8",
          "name": "proposalId",
          "type": "uint8"
        },
        {
          "internalType": "uint256",
          "name": "bidIndex",
          "type": "uint256"
        }
      ],
      "name": "refuseBid",
      "outputs": [],
      "stateMutability": "nonpayable",
      "type": "function"
    }
  ],
  "bytecode": "0x608060405234801561001057600080fd5b506124ac806100206000396000f3fe608060405234801561001057600080fd5b50600436106100b45760003560e01c806361bf8d9e1161007157806361bf8d9e1461021f578063a86213161461023f578063c160adf714610279578063d0e7993c1461028c578063e38785bf1461029f578063edd008e3146102b257600080fd5b80630f27d31c146100b957806334bdcdd71461016557806347158c901461017a5780634cc461eb1461018d5780634dd3de22146101a05780634e054d8d1461020c575b600080fd5b6101206100c7366004612150565b6001602081815260009384526040808520825292845292829020825180840190935280546001600160a01b038082168552600160a01b90910460ff16948401949094529081015460028201546003909201549293169184565b6040805185516001600160a01b03908116825260209687015160ff169682019690965294909316928401929092526060830152608082015260a0015b60405180910390f35b610178610173366004612185565b6102c5565b005b610178610188366004612185565b6105af565b61017861019b3660046121a7565b610700565b6101e46101ae366004612150565b60006020818152928152604080822090935290815220805460018201546002909201546001600160a01b03909116919060ff1683565b604080516001600160a01b039094168452602084019290925260ff169082015260600161015c565b61017861021a3660046121ec565b610ce1565b61023261022d366004612150565b610ee2565b60405161015c9190612218565b61025261024d36600461227b565b610fbc565b6040805182516001600160a01b0316815260209283015160ff16928101929092520161015c565b6101786102873660046122b9565b6110cf565b61017861029a3660046122d5565b61156f565b6101786102ad3660046121a7565b611b71565b6101786102c03660046122b9565b611c09565b3360008181526020818152604080832060ff861684529091529020546001600160a01b031661030f5760405162461bcd60e51b815260040161030690612324565b60405180910390fd5b60005b6001600160a01b03821660009081526020818152604080832060ff8716845290915290206003015481101561050a576001600160a01b03821660009081526020818152604080832060ff871684529091528120600301805460019291908490811061037f5761037f612365565b60009182526020808320909101546001600160a01b0390811684528382019490945260409283018220938616825281815282822060ff8816835290529081206003018054849081106103d3576103d3612365565b600091825260208083209091015460ff600160a01b90910481168452838201949094526040928301822080546001600160a81b03191681556001810180546001600160a01b03191690556002810183905560039081018390556001600160a01b03871683528282528383209488168352939052908120909101805460059291908490811061046357610463612365565b60009182526020808320909101546001600160a01b0390811684528382019490945260409283018220938616825281815282822060ff881683529052206003018054839081106104b5576104b5612365565b6000918252602080832090910154835460018101855593835291819020908304018054601f9093166101000a60ff600160a01b909304831681029202199092161790558061050281612391565b915050610312565b506001600160a01b03811660009081526020818152604080832060ff86168452909152812080546001600160a01b03191681556001810182905560028101805460ff191690559061055e60038301826120e1565b50506001600160a01b03166000908152600460209081526040822080546001810182559083529181902090820401805460ff938416601f9093166101000a9283029390920219909116919091179055565b33600081815260016020818152604080842060ff8716855290915290912001546001600160a01b03166105f45760405162461bcd60e51b8152600401610306906123ac565b6001600160a01b03808216600090815260016020908152604080832060ff80881680865282855283862080549788168752868652848720600160a01b90980490921686529584529184209490935291905260039081015491018054909190811061066057610660612365565b6000918252602080832090910180546001600160a81b03199081169091556001600160a01b03939093168083526001808352604080852060ff9788168087529085528186208054909716875586830180546001600160a01b03191690556002870186905560039096018590559184526005835290832080549182018155835291819020908204018054601f9092166101000a928302929093021916179055565b3360008181526020818152604080832060ff881684529091529020546001600160a01b03166107415760405162461bcd60e51b815260040161030690612324565b6001600160a01b03838116600090815260016020818152604080842060ff881685529091529091200154166107885760405162461bcd60e51b8152600401610306906123ac565b6001600160a01b0381811660008181526020818152604080832060ff8a8116855290835281842080546001918201548b89168752828652848720938b16875292909452938290209384015460029094015491516331a9108f60e11b81526004810182905292861695909493169290918590636352211e9060240160206040518083038186803b15801561081a57600080fd5b505afa15801561082e573d6000803e3d6000fd5b505050506040513d601f19601f8201168201806040525081019061085291906123e3565b6001600160a01b0316146108b25761086a8589611d31565b60405162461bcd60e51b815260206004820152601e60248201527f596f7520646f206e6f74206f776e20746865206e667420616e796d6f726500006044820152606401610306565b60405163020604bf60e21b81526004810184905230906001600160a01b0386169063081812fc9060240160206040518083038186803b1580156108f457600080fd5b505afa158015610908573d6000803e3d6000fd5b505050506040513d601f19601f8201168201806040525081019061092c91906123e3565b6001600160a01b0316146109c2576109448589611d31565b60405162461bcd60e51b815260206004820152604760248201527f596f752072656d6f76656420617070726f76616c20666f7220746865206e667460448201527f20746f207468697320636f6e74726163742c20706c656173652072652d6170706064820152661c9bdd99481a5d60ca1b608482015260a401610306565b6040516331a9108f60e11b8152600481018290526001600160a01b038089169190841690636352211e9060240160206040518083038186803b158015610a0757600080fd5b505afa158015610a1b573d6000803e3d6000fd5b505050506040513d601f19601f82011682018060405250810190610a3f91906123e3565b6001600160a01b031614610aaf57610a578787611fd2565b60405162461bcd60e51b815260206004820152602760248201527f5468652062696464657220646f6573206e6f74206f776e20746865206e667420604482015266616e796d6f726560c81b6064820152608401610306565b60405163020604bf60e21b81526004810182905230906001600160a01b0384169063081812fc9060240160206040518083038186803b158015610af157600080fd5b505afa158015610b05573d6000803e3d6000fd5b505050506040513d601f19601f82011682018060405250810190610b2991906123e3565b6001600160a01b031614610c0957610b418787611fd2565b60405162461bcd60e51b815260206004820152608560248201527f546865206269646465722072656d6f76656420617070726f76616c20666f722060448201527f74686520626964646564206e667420746f207468697320636f6e74726163742e60648201527f20496d706f737369626c6520746f20636f6d706c65746520746865207377617060848201527f20756e74696c20746865206269646465722072652d617070726f76657320746860a48201526419481b999d60da1b60c482015260e401610306565b604051632142170760e11b81526001600160a01b038516906342842e0e90610c399088908b908890600401612400565b600060405180830381600087803b158015610c5357600080fd5b505af1158015610c67573d6000803e3d6000fd5b5050604051632142170760e11b81526001600160a01b03851692506342842e0e9150610c9b908a9089908690600401612400565b600060405180830381600087803b158015610cb557600080fd5b505af1158015610cc9573d6000803e3d6000fd5b50505050610cd78589611d31565b5050505050505050565b3360008181526002602052604090205460ff908116111580610d1a57506001600160a01b03811660009081526004602052604090205415155b610d7d5760405162461bcd60e51b815260206004820152602e60248201527f596f75206861766520746f6f206d616e792070726f706f73616c732c2064656c60448201526d657465206f6e65206265666f726560901b6064820152608401610306565b6001600160a01b03811660009081526004602052604081205415610e45576001600160a01b03821660009081526004602052604090208054610dc190600190612424565b81548110610dd157610dd1612365565b6000918252602080832081830401546001600160a01b0386168452600490915260409092208054601f9092166101000a90920460ff16925080610e1657610e1661243b565b60019003818190600052602060002090602091828204019190066101000a81549060ff02191690559055610e8b565b506001600160a01b0381166000908152600260205260408120805460ff169160019190610e728385612451565b92506101000a81548160ff021916908360ff1602179055505b6001600160a01b0391821660009081526020818152604080832060ff9490941680845293909152902080546001600160a01b031916949092169390931781556001810191909155600201805460ff19169091179055565b6001600160a01b0382811660009081526020818152604080832060ff8616845290915290205460609116610f285760405162461bcd60e51b815260040161030690612324565b6001600160a01b03831660009081526020818152604080832060ff86168452825280832060030180548251818502810185019093528083529193909284015b82821015610fb057600084815260209081902060408051808201909152908401546001600160a01b0381168252600160a01b900460ff1681830152825260019092019101610f67565b50505050905092915050565b60408051808201909152600080825260208201526001600160a01b0384811660009081526020818152604080832060ff88168452909152902054166110135760405162461bcd60e51b815260040161030690612324565b6001600160a01b03841660009081526020818152604080832060ff8716845290915290206003015482106110595760405162461bcd60e51b8152600401610306906123ac565b6001600160a01b03841660009081526020818152604080832060ff87168452909152902060030180548390811061109257611092612365565b6000918252602091829020604080518082019091529101546001600160a01b0381168252600160a01b900460ff1691810191909152949350505050565b3360008181526020818152604080832060ff871684529091529020546001600160a01b03166111105760405162461bcd60e51b815260040161030690612324565b6001600160a01b03811660009081526020818152604080832060ff87168452909152812060030180548490811061114957611149612365565b6000918252602090912001546001600160a01b0316141561117c5760405162461bcd60e51b8152600401610306906123ac565b6001600160a01b03811660009081526020818152604080832060ff8716845290915281206003018054849081106111b5576111b5612365565b6000918252602080832060408051808201825293909101546001600160a01b03808216855260ff600160a01b90920482168585019081528882168088528786528488208c8516895286528488208054600191820154895186168b52828952878b20855188168c528952878b208301548a5187168c52928952878b2094519096168a5292909652968490206002015493516331a9108f60e11b81526004810184905295975081169591949316928590636352211e9060240160206040518083038186803b15801561128457600080fd5b505afa158015611298573d6000803e3d6000fd5b505050506040513d601f19601f820116820180604052508101906112bc91906123e3565b6001600160a01b0316146112d45761086a8689611d31565b60405163020604bf60e21b81526004810184905230906001600160a01b0386169063081812fc9060240160206040518083038186803b15801561131657600080fd5b505afa15801561132a573d6000803e3d6000fd5b505050506040513d601f19601f8201168201806040525081019061134e91906123e3565b6001600160a01b031614611366576109448689611d31565b845160208601516040516331a9108f60e11b8152600481018490526001600160a01b038084169190861690636352211e9060240160206040518083038186803b1580156113b257600080fd5b505afa1580156113c6573d6000803e3d6000fd5b505050506040513d601f19601f820116820180604052508101906113ea91906123e3565b6001600160a01b03161461140257610a578282611fd2565b60405163020604bf60e21b81526004810184905230906001600160a01b0386169063081812fc9060240160206040518083038186803b15801561144457600080fd5b505afa158015611458573d6000803e3d6000fd5b505050506040513d601f19601f8201168201806040525081019061147c91906123e3565b6001600160a01b03161461149457610b418282611fd2565b8651604051632142170760e11b81526001600160a01b038816916342842e0e916114c4918c918a90600401612400565b600060405180830381600087803b1580156114de57600080fd5b505af11580156114f2573d6000803e3d6000fd5b50508851604051632142170760e11b81526001600160a01b03881693506342842e0e925061152791908c908890600401612400565b600060405180830381600087803b15801561154157600080fd5b505af1158015611555573d6000803e3d6000fd5b50505050611563888b611d31565b50505050505050505050565b60405163020604bf60e21b81526004810182905230906001600160a01b0384169063081812fc9060240160206040518083038186803b1580156115b157600080fd5b505afa1580156115c5573d6000803e3d6000fd5b505050506040513d601f19601f820116820180604052508101906115e991906123e3565b6001600160a01b0316146116655760405162461bcd60e51b815260206004820152603f60248201527f596f75206861766520746f20617070726f76652074686520746f6b656e20796f60448201527f752077616e7420746f207377617020746f207468697320636f6e7472616374006064820152608401610306565b6001600160a01b0384811660009081526020818152604080832060ff88168452909152902054166116a85760405162461bcd60e51b815260040161030690612324565b6040516331a9108f60e11b815260048101829052339081906001600160a01b03851690636352211e9060240160206040518083038186803b1580156116ec57600080fd5b505afa158015611700573d6000803e3d6000fd5b505050506040513d601f19601f8201168201806040525081019061172491906123e3565b6001600160a01b03161461177a5760405162461bcd60e51b815260206004820181905260248201527f596f7520646f206e6f74206f776e2074686520737065636966696564206e66746044820152606401610306565b6001600160a01b0381166000908152600560205260409020541515806117bc57506001600160a01b03811660009081526003602052604090205460ff90811611155b61181a5760405162461bcd60e51b815260206004820152602960248201527f596f75206861766520746f6f206d616e7920626964732c2064656c657465206f6044820152686e65206265666f726560b81b6064820152608401610306565b6040805160c08101825260006080820181815260a083018290528252602080830182815283850183815260608501848152865180880188526001600160a01b038d811680835260ff8e16838801819052838a528d8316909652938b9052928652858552878620938652928452868520600301549052861683526005909152928120549192911561194e576001600160a01b038416600090815260056020526040902080546118ca90600190612424565b815481106118da576118da612365565b6000918252602080832081830401546001600160a01b0388168452600590915260409092208054601f9092166101000a90920460ff1692508061191f5761191f61243b565b60019003818190600052602060002090602091828204019190066101000a81549060ff02191690559055611994565b506001600160a01b0383166000908152600360205260408120805460ff16916001919061197b8385612451565b92506101000a81548160ff021916908360ff1602179055505b60408051808201909152600080825260208201528481600001906001600160a01b031690816001600160a01b03168152505081816020019060ff16908160ff16815250506000808a6001600160a01b03166001600160a01b0316815260200190815260200160002060008960ff1660ff168152602001908152602001600020600301819080600181540180825580915050600190039060005260206000200160009091909190915060008201518160000160006101000a8154816001600160a01b0302191690836001600160a01b0316021790555060208201518160000160146101000a81548160ff021916908360ff16021790555050508360016000876001600160a01b03166001600160a01b0316815260200190815260200160002060008460ff1660ff16815260200190815260200160002060008201518160000160008201518160000160006101000a8154816001600160a01b0302191690836001600160a01b0316021790555060208201518160000160146101000a81548160ff021916908360ff160217905550505060208201518160010160006101000a8154816001600160a01b0302191690836001600160a01b031602179055506040820151816002015560608201518160030155905050505050505050505050565b3360008181526020818152604080832060ff881684529091529020546001600160a01b0316611bb25760405162461bcd60e51b815260040161030690612324565b6001600160a01b03838116600090815260016020818152604080842060ff88168552909152909120015416611bf95760405162461bcd60e51b8152600401610306906123ac565b611c038383611fd2565b50505050565b3360008181526020818152604080832060ff871684529091529020546001600160a01b0316611c4a5760405162461bcd60e51b815260040161030690612324565b6001600160a01b03811660009081526020818152604080832060ff871684529091528120600301805484908110611c8357611c83612365565b6000918252602090912001546001600160a01b03161415611cb65760405162461bcd60e51b8152600401610306906123ac565b6001600160a01b03811660009081526020818152604080832060ff871684529091528120600301805484908110611cef57611cef612365565b6000918252602091829020604080518082019091529101546001600160a01b038116808352600160a01b90910460ff16928201839052909250611c0391611fd2565b60005b6001600160a01b03831660009081526020818152604080832060ff86168452909152902060030154811015611f2c576001600160a01b03831660009081526020818152604080832060ff8616845290915281206003018054600192919084908110611da157611da1612365565b60009182526020808320909101546001600160a01b0390811684528382019490945260409283018220938716825281815282822060ff871683529052908120600301805484908110611df557611df5612365565b600091825260208083209091015460ff600160a01b90910481168452838201949094526040928301822080546001600160a81b03191681556001810180546001600160a01b03191690556002810183905560039081018390556001600160a01b038816835282825283832094871683529390529081209091018054600592919084908110611e8557611e85612365565b60009182526020808320909101546001600160a01b0390811684528382019490945260409283018220938716825281815282822060ff87168352905220600301805483908110611ed757611ed7612365565b6000918252602080832090910154835460018101855593835291819020908304018054601f9093166101000a60ff600160a01b9093048316810292021990921617905580611f2481612391565b915050611d34565b506001600160a01b03821660009081526020818152604080832060ff85168452909152812080546001600160a01b03191681556001810182905560028101805460ff1916905590611f8060038301826120e1565b50506001600160a01b039190911660009081526004602090815260408220805460018101825590835291819020908204018054601f9092166101000a60ff818102199093169290931692909202179055565b6001600160a01b03808316600090815260016020908152604080832060ff80871680865282855283862080549788168752868652848720600160a01b90980490921686529584529184209490935291905260039081015491018054909190811061203e5761203e612365565b6000918252602080832090910180546001600160a81b03199081169091556001600160a01b03949094168083526001808352604080852060ff9687168087529085528186208054909816885587830180546001600160a01b03191690556002880186905560039097018590559184526005835290832080549182018155835291819020908204018054601f9092166101000a938402939092021916919091179055565b50805460008255906000526020600020908101906120ff9190612102565b50565b5b808211156121215780546001600160a81b0319168155600101612103565b5090565b6001600160a01b03811681146120ff57600080fd5b803560ff8116811461214b57600080fd5b919050565b6000806040838503121561216357600080fd5b823561216e81612125565b915061217c6020840161213a565b90509250929050565b60006020828403121561219757600080fd5b6121a08261213a565b9392505050565b6000806000606084860312156121bc57600080fd5b6121c58461213a565b925060208401356121d581612125565b91506121e36040850161213a565b90509250925092565b600080604083850312156121ff57600080fd5b823561220a81612125565b946020939093013593505050565b602080825282518282018190526000919060409081850190868401855b8281101561226e5761225e84835180516001600160a01b0316825260209081015160ff16910152565b9284019290850190600101612235565b5091979650505050505050565b60008060006060848603121561229057600080fd5b833561229b81612125565b92506122a96020850161213a565b9150604084013590509250925092565b600080604083850312156122cc57600080fd5b61220a8361213a565b600080600080608085870312156122eb57600080fd5b84356122f681612125565b93506123046020860161213a565b9250604085013561231481612125565b9396929550929360600135925050565b60208082526021908201527f5370656369666965642070726f706f73616c20646f6573206e6f7420657869736040820152601d60fa1b606082015260800190565b634e487b7160e01b600052603260045260246000fd5b634e487b7160e01b600052601160045260246000fd5b60006000198214156123a5576123a561237b565b5060010190565b6020808252601c908201527f5370656369666965642062696420646f6573206e6f7420657869737400000000604082015260600190565b6000602082840312156123f557600080fd5b81516121a081612125565b6001600160a01b039384168152919092166020820152604081019190915260600190565b6000828210156124365761243661237b565b500390565b634e487b7160e01b600052603160045260246000fd5b600060ff821660ff84168060ff0382111561246e5761246e61237b565b01939250505056fea26469706673582212206f9e2c82098ef276e7c7fc323a6cd56aede7f24cb228ed8be6088cde83701d8964736f6c63430008090033",
  "linkReferences": {},
  "deployedLinkReferences": {}
}