{
  "_format": "hh-sol-artifact-1",
  "contractName": "NFTSwap",
  "sourceName": "contracts/NFTSwap.sol",
  "abi": [
    {
      "inputs": [],
      "stateMutability": "nonpayable",
      "type": "constructor"
    },
    {
      "inputs": [
        {
          "internalType": "uint256",
          "name": "proposalId",
          "type": "uint256"
        },
        {
          "internalType": "uint256",
          "name": "bidId",
          "type": "uint256"
        }
      ],
      "name": "acceptBid",
      "outputs": [],
      "stateMutability": "nonpayable",
      "type": "function"
    },
    {
      "inputs": [
        {
          "internalType": "uint256",
          "name": "",
          "type": "uint256"
        }
      ],
      "name": "bids",
      "outputs": [
        {
          "internalType": "address",
          "name": "bidder",
          "type": "address"
        },
        {
          "internalType": "uint256",
          "name": "proposalRef",
          "type": "uint256"
        },
        {
          "internalType": "contract IERC721",
          "name": "nftAddress",
          "type": "address"
        },
        {
          "internalType": "uint256",
          "name": "tokenId",
          "type": "uint256"
        },
        {
          "internalType": "uint256",
          "name": "indexInProposal",
          "type": "uint256"
        }
      ],
      "stateMutability": "view",
      "type": "function"
    },
    {
      "inputs": [],
      "name": "bidsCount",
      "outputs": [
        {
          "internalType": "uint256",
          "name": "",
          "type": "uint256"
        }
      ],
      "stateMutability": "view",
      "type": "function"
    },
    {
      "inputs": [
        {
          "internalType": "uint256",
          "name": "bidId",
          "type": "uint256"
        }
      ],
      "name": "deleteBid",
      "outputs": [],
      "stateMutability": "nonpayable",
      "type": "function"
    },
    {
      "inputs": [
        {
          "internalType": "uint256",
          "name": "proposalId",
          "type": "uint256"
        }
      ],
      "name": "deleteProposal",
      "outputs": [],
      "stateMutability": "nonpayable",
      "type": "function"
    },
    {
      "inputs": [
        {
          "internalType": "uint8",
          "name": "proposalId",
          "type": "uint8"
        },
        {
          "internalType": "uint256",
          "name": "index",
          "type": "uint256"
        }
      ],
      "name": "getBidFromProposal",
      "outputs": [
        {
          "internalType": "uint256",
          "name": "bidRef",
          "type": "uint256"
        }
      ],
      "stateMutability": "view",
      "type": "function"
    },
    {
      "inputs": [
        {
          "internalType": "uint256",
          "name": "proposalId",
          "type": "uint256"
        }
      ],
      "name": "getBidsFromProposal",
      "outputs": [
        {
          "internalType": "uint256[]",
          "name": "bidsRef",
          "type": "uint256[]"
        }
      ],
      "stateMutability": "view",
      "type": "function"
    },
    {
      "inputs": [
        {
          "internalType": "uint256",
          "name": "proposalId",
          "type": "uint256"
        },
        {
          "internalType": "contract IERC721",
          "name": "bidNftAddress",
          "type": "address"
        },
        {
          "internalType": "uint256",
          "name": "bidNftTokenId",
          "type": "uint256"
        }
      ],
      "name": "makeBid",
      "outputs": [],
      "stateMutability": "nonpayable",
      "type": "function"
    },
    {
      "inputs": [
        {
          "internalType": "contract IERC721",
          "name": "nftAddress",
          "type": "address"
        },
        {
          "internalType": "uint256",
          "name": "tokenId",
          "type": "uint256"
        }
      ],
      "name": "makeProposal",
      "outputs": [],
      "stateMutability": "nonpayable",
      "type": "function"
    },
    {
      "inputs": [
        {
          "internalType": "uint256",
          "name": "",
          "type": "uint256"
        }
      ],
      "name": "proposals",
      "outputs": [
        {
          "internalType": "address",
          "name": "proposer",
          "type": "address"
        },
        {
          "internalType": "contract IERC721",
          "name": "nftAddress",
          "type": "address"
        },
        {
          "internalType": "uint256",
          "name": "tokenId",
          "type": "uint256"
        },
        {
          "internalType": "uint256",
          "name": "proposalId",
          "type": "uint256"
        }
      ],
      "stateMutability": "view",
      "type": "function"
    },
    {
      "inputs": [],
      "name": "proposalsCount",
      "outputs": [
        {
          "internalType": "uint256",
          "name": "",
          "type": "uint256"
        }
      ],
      "stateMutability": "view",
      "type": "function"
    },
    {
      "inputs": [
        {
          "internalType": "uint256",
          "name": "proposalId",
          "type": "uint256"
        },
        {
          "internalType": "uint256",
          "name": "bidId",
          "type": "uint256"
        }
      ],
      "name": "refuseBid",
      "outputs": [],
      "stateMutability": "nonpayable",
      "type": "function"
    }
  ],
  "bytecode": "0x608060405234801561001057600080fd5b506116ab806100206000396000f3fe608060405234801561001057600080fd5b50600436106100b45760003560e01c80634e054d8d116100715780634e054d8d146101f7578063655e9da41461020a5780637aa39ee51461021d5780638259d553146102305780638bebfca914610243578063dbab5cfb1461025657600080fd5b8063013cf08b146100b957806302e9d5e41461012b5780630a9f46ad146101405780632d0e4086146101575780633fbffcef1461016a5780634423c5f114610173575b600080fd5b6100fb6100c73660046113fa565b60006020819052908152604090208054600182015460028301546003909301546001600160a01b0392831693919092169184565b604080516001600160a01b0395861681529490931660208501529183015260608201526080015b60405180910390f35b61013e610139366004611413565b610276565b005b61014960025481565b604051908152602001610122565b610149610165366004611435565b610885565b61014960035481565b6101be6101813660046113fa565b6001602081905260009182526040909120805491810154600282015460038301546004909301546001600160a01b03948516949293919092169185565b604080516001600160a01b039687168152602081019590955292909416918301919091526060820152608081019190915260a001610122565b61013e61020536600461147c565b61092e565b61013e61021836600461149a565b610a72565b61013e61022b366004611413565b610e68565b61013e61023e3660046113fa565b610f19565b61013e6102513660046113fa565b6110e8565b6102696102643660046113fa565b611240565b60405161012291906114d2565b60008181526001602081815260408084205486855291849052909220015433916001600160a01b0390811691166102c85760405162461bcd60e51b81526004016102bf90611516565b60405180910390fd5b6000848152602081905260409020546001600160a01b038381169116146103015760405162461bcd60e51b81526004016102bf90611557565b6000838152600160205260409020600201546001600160a01b03166103385760405162461bcd60e51b81526004016102bf9061158e565b60008481526020818152604080832060018082015460029283015489875291909452938290209081015460039091015491516331a9108f60e11b8152600481018590526001600160a01b03938416949391821692918716908590636352211e9060240160206040518083038186803b1580156103b357600080fd5b505afa1580156103c7573d6000803e3d6000fd5b505050506040513d601f19601f820116820180604052508101906103eb91906115c5565b6001600160a01b03161461044a57610402886112db565b60405162461bcd60e51b815260206004820152601e60248201527f596f7520646f206e6f74206f776e20746865206e667420616e796d6f7265000060448201526064016102bf565b60405163020604bf60e21b81526004810184905230906001600160a01b0386169063081812fc9060240160206040518083038186803b15801561048c57600080fd5b505afa1580156104a0573d6000803e3d6000fd5b505050506040513d601f19601f820116820180604052508101906104c491906115c5565b6001600160a01b031614610559576104db886112db565b60405162461bcd60e51b815260206004820152604760248201527f596f752072656d6f76656420617070726f76616c20666f7220746865206e667460448201527f20746f207468697320636f6e74726163742c20706c656173652072652d6170706064820152661c9bdd99481a5d60ca1b608482015260a4016102bf565b6040516331a9108f60e11b8152600481018290526001600160a01b038087169190841690636352211e9060240160206040518083038186803b15801561059e57600080fd5b505afa1580156105b2573d6000803e3d6000fd5b505050506040513d601f19601f820116820180604052508101906105d691906115c5565b6001600160a01b031614610645576105ed87611185565b60405162461bcd60e51b815260206004820152602760248201527f5468652062696464657220646f6573206e6f74206f776e20746865206e667420604482015266616e796d6f726560c81b60648201526084016102bf565b60405163020604bf60e21b81526004810182905230906001600160a01b0384169063081812fc9060240160206040518083038186803b15801561068757600080fd5b505afa15801561069b573d6000803e3d6000fd5b505050506040513d601f19601f820116820180604052508101906106bf91906115c5565b6001600160a01b03161461079e576106d687611185565b60405162461bcd60e51b815260206004820152608560248201527f546865206269646465722072656d6f76656420617070726f76616c20666f722060448201527f74686520626964646564206e667420746f207468697320636f6e74726163742e60648201527f20496d706f737369626c6520746f20636f6d706c65746520746865207377617060848201527f20756e74696c20746865206269646465722072652d617070726f76657320746860a48201526419481b999d60da1b60c482015260e4016102bf565b604051632142170760e11b81526001600160a01b0387811660048301528681166024830152604482018590528516906342842e0e90606401600060405180830381600087803b1580156107f057600080fd5b505af1158015610804573d6000803e3d6000fd5b5050604051632142170760e11b81526001600160a01b038881166004830152898116602483015260448201859052851692506342842e0e9150606401600060405180830381600087803b15801561085a57600080fd5b505af115801561086e573d6000803e3d6000fd5b5050505061087b886112db565b5050505050505050565b60ff82166000908152602081905260408120600101546001600160a01b03166108c05760405162461bcd60e51b81526004016102bf90611516565b60ff831660009081526020819052604090206004015482106108f45760405162461bcd60e51b81526004016102bf9061158e565b60ff8316600090815260208190526040902060040180548390811061091b5761091b6115e9565b9060005260206000200154905092915050565b600254339060ff101580610943575060045415155b6109a65760405162461bcd60e51b815260206004820152602e60248201527f596f75206861766520746f6f206d616e792070726f706f73616c732c2064656c60448201526d657465206f6e65206265666f726560901b60648201526084016102bf565b60045460009015610a0a57600480546109c190600190611615565b815481106109d1576109d16115e9565b9060005260206000200154905060048054806109ef576109ef61162c565b60019003818190600052602060002001600090559055610a25565b5060028054906001906000610a1f8385611642565b90915550505b600081815260208190526040902080546001600160a01b039384166001600160a01b0319918216178255600182018054969094169516949094179091556002830191909155600390910155565b60405163020604bf60e21b81526004810182905230906001600160a01b0384169063081812fc9060240160206040518083038186803b158015610ab457600080fd5b505afa158015610ac8573d6000803e3d6000fd5b505050506040513d601f19601f82011682018060405250810190610aec91906115c5565b6001600160a01b031614610b685760405162461bcd60e51b815260206004820152603f60248201527f596f75206861766520746f20617070726f76652074686520746f6b656e20796f60448201527f752077616e7420746f207377617020746f207468697320636f6e74726163740060648201526084016102bf565b6000838152602081905260409020600101546001600160a01b0316610b9f5760405162461bcd60e51b81526004016102bf90611516565b6040516331a9108f60e11b815260048101829052339081906001600160a01b03851690636352211e9060240160206040518083038186803b158015610be357600080fd5b505afa158015610bf7573d6000803e3d6000fd5b505050506040513d601f19601f82011682018060405250810190610c1b91906115c5565b6001600160a01b031614610c715760405162461bcd60e51b815260206004820181905260248201527f596f7520646f206e6f74206f776e2074686520737065636966696564206e667460448201526064016102bf565b600554151580610c84575060ff60035411155b610ce25760405162461bcd60e51b815260206004820152602960248201527f596f75206861766520746f6f206d616e7920626964732c2064656c657465206f6044820152686e65206265666f726560b81b60648201526084016102bf565b610d266040518060a0016040528060006001600160a01b031681526020016000815260200160006001600160a01b0316815260200160008152602001600081525090565b6001600160a01b038083168252602080830187905290851660408084019190915260608301859052600087815291829052812060040154608083015260055415610dc35760058054610d7a90600190611615565b81548110610d8a57610d8a6115e9565b906000526020600020015490506005805480610da857610da861162c565b60019003818190600052602060002001600090559055610dde565b5060038054906001906000610dd88385611642565b90915550505b6000958652602086815260408088206004908101805460018082018355918b52848b200185905593895283835297819020845181546001600160a01b03199081166001600160a01b03928316178355938601519482019490945590840151600282018054909316931692909217905560608201516003820155608090910151940193909355505050565b6000828152602081905260409020600101546001600160a01b0316610e9f5760405162461bcd60e51b81526004016102bf90611516565b6000828152602081905260409020546001600160a01b03163314610ed55760405162461bcd60e51b81526004016102bf90611557565b6000818152600160205260409020600201546001600160a01b0316610f0c5760405162461bcd60e51b81526004016102bf9061158e565b610f1581611185565b5050565b6000818152602081905260409020600101546001600160a01b0316610f505760405162461bcd60e51b81526004016102bf90611516565b6000818152602081905260409020546001600160a01b03163314610f865760405162461bcd60e51b81526004016102bf90611557565b60005b60008281526020819052604090206004015481101561106b57600160008060008581526020019081526020016000206004018381548110610fcc57610fcc6115e9565b60009182526020808320909101548352828101939093526040918201812080546001600160a01b031990811682556001820183905560028201805490911690556003810182905560049081018290558582529281905220018054600591908390811061103a5761103a6115e9565b60009182526020808320909101548354600181018555938352912090910155806110638161165a565b915050610f89565b50600081815260208190526040812080546001600160a01b0319908116825560018201805490911690556002810182905560038101829055906110b160048301826113c0565b5050600480546001810182556000919091527f8a35acfbc15ff81a39ae7d344fd709f28e8600b4aa8c65c6b64bfe7fe36bd19b0155565b6000818152600160205260409020600201546001600160a01b031661111f5760405162461bcd60e51b81526004016102bf9061158e565b6000818152600160205260409020546001600160a01b031633146111855760405162461bcd60e51b815260206004820152601a60248201527f53706563696669656420626964206973206e6f7420796f75727300000000000060448201526064016102bf565b6000818152600160208181526040808420808401548552848352908420938590529190526004908101549101805490919081106111c4576111c46115e9565b600091825260208083209091018290558282526001908190526040822080546001600160a01b031990811682558183018490556002820180549091169055600381018390556004018290556005805491820181559091527f036b6384b5eca791c62761152d0c79bb0604c104a5fb6f4eb0703f3154bb3db00155565b6000818152602081905260409020600101546060906001600160a01b031661127a5760405162461bcd60e51b81526004016102bf90611516565b60008281526020818152604091829020600401805483518184028101840190945280845290918301828280156112cf57602002820191906000526020600020905b8154815260200190600101908083116112bb575b50505050509050919050565b60005b60008281526020819052604090206004015481101561106b57600160008060008581526020019081526020016000206004018381548110611321576113216115e9565b60009182526020808320909101548352828101939093526040918201812080546001600160a01b031990811682556001820183905560028201805490911690556003810182905560049081018290558582529281905220018054600591908390811061138f5761138f6115e9565b60009182526020808320909101548354600181018555938352912090910155806113b88161165a565b9150506112de565b50805460008255906000526020600020908101906113de91906113e1565b50565b5b808211156113f657600081556001016113e2565b5090565b60006020828403121561140c57600080fd5b5035919050565b6000806040838503121561142657600080fd5b50508035926020909101359150565b6000806040838503121561144857600080fd5b823560ff8116811461145957600080fd5b946020939093013593505050565b6001600160a01b03811681146113de57600080fd5b6000806040838503121561148f57600080fd5b823561145981611467565b6000806000606084860312156114af57600080fd5b8335925060208401356114c181611467565b929592945050506040919091013590565b6020808252825182820181905260009190848201906040850190845b8181101561150a578351835292840192918401916001016114ee565b50909695505050505050565b60208082526021908201527f5370656369666965642070726f706f73616c20646f6573206e6f7420657869736040820152601d60fa1b606082015260800190565b6020808252601f908201527f5370656369666965642070726f706f73616c206973206e6f7420796f75727300604082015260600190565b6020808252601c908201527f5370656369666965642062696420646f6573206e6f7420657869737400000000604082015260600190565b6000602082840312156115d757600080fd5b81516115e281611467565b9392505050565b634e487b7160e01b600052603260045260246000fd5b634e487b7160e01b600052601160045260246000fd5b600082821015611627576116276115ff565b500390565b634e487b7160e01b600052603160045260246000fd5b60008219821115611655576116556115ff565b500190565b600060001982141561166e5761166e6115ff565b506001019056fea264697066735822122040e14cd87b23055d3d1c0145478151060ca6e77fb21bb8fd23fa4fdb503abe3564736f6c63430008090033",
  "linkReferences": {},
  "deployedLinkReferences": {}
}