{
    "_format": "hh-sol-artifact-1",
    "contractName": "MyToken",
    "sourceName": "contracts/MyToken.sol",
    "abi": [
        {
            "inputs": [],
            "stateMutability": "nonpayable",
            "type": "constructor"
        },
        {
            "anonymous": false,
            "inputs": [
                {
                    "indexed": true,
                    "internalType": "address",
                    "name": "owner",
                    "type": "address"
                },
                {
                    "indexed": true,
                    "internalType": "address",
                    "name": "approved",
                    "type": "address"
                },
                {
                    "indexed": true,
                    "internalType": "uint256",
                    "name": "tokenId",
                    "type": "uint256"
                }
            ],
            "name": "Approval",
            "type": "event"
        },
        {
            "anonymous": false,
            "inputs": [
                {
                    "indexed": true,
                    "internalType": "address",
                    "name": "owner",
                    "type": "address"
                },
                {
                    "indexed": true,
                    "internalType": "address",
                    "name": "operator",
                    "type": "address"
                },
                {
                    "indexed": false,
                    "internalType": "bool",
                    "name": "approved",
                    "type": "bool"
                }
            ],
            "name": "ApprovalForAll",
            "type": "event"
        },
        {
            "anonymous": false,
            "inputs": [
                {
                    "indexed": true,
                    "internalType": "address",
                    "name": "previousOwner",
                    "type": "address"
                },
                {
                    "indexed": true,
                    "internalType": "address",
                    "name": "newOwner",
                    "type": "address"
                }
            ],
            "name": "OwnershipTransferred",
            "type": "event"
        },
        {
            "anonymous": false,
            "inputs": [
                {
                    "indexed": false,
                    "internalType": "address",
                    "name": "account",
                    "type": "address"
                }
            ],
            "name": "Paused",
            "type": "event"
        },
        {
            "anonymous": false,
            "inputs": [
                {
                    "indexed": true,
                    "internalType": "address",
                    "name": "from",
                    "type": "address"
                },
                {
                    "indexed": true,
                    "internalType": "address",
                    "name": "to",
                    "type": "address"
                },
                {
                    "indexed": true,
                    "internalType": "uint256",
                    "name": "tokenId",
                    "type": "uint256"
                }
            ],
            "name": "Transfer",
            "type": "event"
        },
        {
            "anonymous": false,
            "inputs": [
                {
                    "indexed": false,
                    "internalType": "address",
                    "name": "account",
                    "type": "address"
                }
            ],
            "name": "Unpaused",
            "type": "event"
        },
        {
            "inputs": [
                {
                    "internalType": "address",
                    "name": "to",
                    "type": "address"
                },
                {
                    "internalType": "uint256",
                    "name": "tokenId",
                    "type": "uint256"
                }
            ],
            "name": "approve",
            "outputs": [],
            "stateMutability": "nonpayable",
            "type": "function"
        },
        {
            "inputs": [
                {
                    "internalType": "address",
                    "name": "owner",
                    "type": "address"
                }
            ],
            "name": "balanceOf",
            "outputs": [
                {
                    "internalType": "uint256",
                    "name": "",
                    "type": "uint256"
                }
            ],
            "stateMutability": "view",
            "type": "function"
        },
        {
            "inputs": [
                {
                    "internalType": "uint256",
                    "name": "tokenId",
                    "type": "uint256"
                }
            ],
            "name": "burn",
            "outputs": [],
            "stateMutability": "nonpayable",
            "type": "function"
        },
        {
            "inputs": [
                {
                    "internalType": "uint256",
                    "name": "tokenId",
                    "type": "uint256"
                }
            ],
            "name": "getApproved",
            "outputs": [
                {
                    "internalType": "address",
                    "name": "",
                    "type": "address"
                }
            ],
            "stateMutability": "view",
            "type": "function"
        },
        {
            "inputs": [
                {
                    "internalType": "address",
                    "name": "owner",
                    "type": "address"
                },
                {
                    "internalType": "address",
                    "name": "operator",
                    "type": "address"
                }
            ],
            "name": "isApprovedForAll",
            "outputs": [
                {
                    "internalType": "bool",
                    "name": "",
                    "type": "bool"
                }
            ],
            "stateMutability": "view",
            "type": "function"
        },
        {
            "inputs": [],
            "name": "name",
            "outputs": [
                {
                    "internalType": "string",
                    "name": "",
                    "type": "string"
                }
            ],
            "stateMutability": "view",
            "type": "function"
        },
        {
            "inputs": [],
            "name": "owner",
            "outputs": [
                {
                    "internalType": "address",
                    "name": "",
                    "type": "address"
                }
            ],
            "stateMutability": "view",
            "type": "function"
        },
        {
            "inputs": [
                {
                    "internalType": "uint256",
                    "name": "tokenId",
                    "type": "uint256"
                }
            ],
            "name": "ownerOf",
            "outputs": [
                {
                    "internalType": "address",
                    "name": "",
                    "type": "address"
                }
            ],
            "stateMutability": "view",
            "type": "function"
        },
        {
            "inputs": [],
            "name": "pause",
            "outputs": [],
            "stateMutability": "nonpayable",
            "type": "function"
        },
        {
            "inputs": [],
            "name": "paused",
            "outputs": [
                {
                    "internalType": "bool",
                    "name": "",
                    "type": "bool"
                }
            ],
            "stateMutability": "view",
            "type": "function"
        },
        {
            "inputs": [],
            "name": "renounceOwnership",
            "outputs": [],
            "stateMutability": "nonpayable",
            "type": "function"
        },
        {
            "inputs": [
                {
                    "internalType": "address",
                    "name": "to",
                    "type": "address"
                },
                {
                    "internalType": "string",
                    "name": "uri",
                    "type": "string"
                }
            ],
            "name": "safeMint",
            "outputs": [],
            "stateMutability": "nonpayable",
            "type": "function"
        },
        {
            "inputs": [
                {
                    "internalType": "address",
                    "name": "from",
                    "type": "address"
                },
                {
                    "internalType": "address",
                    "name": "to",
                    "type": "address"
                },
                {
                    "internalType": "uint256",
                    "name": "tokenId",
                    "type": "uint256"
                }
            ],
            "name": "safeTransferFrom",
            "outputs": [],
            "stateMutability": "nonpayable",
            "type": "function"
        },
        {
            "inputs": [
                {
                    "internalType": "address",
                    "name": "from",
                    "type": "address"
                },
                {
                    "internalType": "address",
                    "name": "to",
                    "type": "address"
                },
                {
                    "internalType": "uint256",
                    "name": "tokenId",
                    "type": "uint256"
                },
                {
                    "internalType": "bytes",
                    "name": "_data",
                    "type": "bytes"
                }
            ],
            "name": "safeTransferFrom",
            "outputs": [],
            "stateMutability": "nonpayable",
            "type": "function"
        },
        {
            "inputs": [
                {
                    "internalType": "address",
                    "name": "operator",
                    "type": "address"
                },
                {
                    "internalType": "bool",
                    "name": "approved",
                    "type": "bool"
                }
            ],
            "name": "setApprovalForAll",
            "outputs": [],
            "stateMutability": "nonpayable",
            "type": "function"
        },
        {
            "inputs": [
                {
                    "internalType": "bytes4",
                    "name": "interfaceId",
                    "type": "bytes4"
                }
            ],
            "name": "supportsInterface",
            "outputs": [
                {
                    "internalType": "bool",
                    "name": "",
                    "type": "bool"
                }
            ],
            "stateMutability": "view",
            "type": "function"
        },
        {
            "inputs": [],
            "name": "symbol",
            "outputs": [
                {
                    "internalType": "string",
                    "name": "",
                    "type": "string"
                }
            ],
            "stateMutability": "view",
            "type": "function"
        },
        {
            "inputs": [
                {
                    "internalType": "uint256",
                    "name": "index",
                    "type": "uint256"
                }
            ],
            "name": "tokenByIndex",
            "outputs": [
                {
                    "internalType": "uint256",
                    "name": "",
                    "type": "uint256"
                }
            ],
            "stateMutability": "view",
            "type": "function"
        },
        {
            "inputs": [
                {
                    "internalType": "address",
                    "name": "owner",
                    "type": "address"
                },
                {
                    "internalType": "uint256",
                    "name": "index",
                    "type": "uint256"
                }
            ],
            "name": "tokenOfOwnerByIndex",
            "outputs": [
                {
                    "internalType": "uint256",
                    "name": "",
                    "type": "uint256"
                }
            ],
            "stateMutability": "view",
            "type": "function"
        },
        {
            "inputs": [
                {
                    "internalType": "uint256",
                    "name": "tokenId",
                    "type": "uint256"
                }
            ],
            "name": "tokenURI",
            "outputs": [
                {
                    "internalType": "string",
                    "name": "",
                    "type": "string"
                }
            ],
            "stateMutability": "view",
            "type": "function"
        },
        {
            "inputs": [],
            "name": "totalSupply",
            "outputs": [
                {
                    "internalType": "uint256",
                    "name": "",
                    "type": "uint256"
                }
            ],
            "stateMutability": "view",
            "type": "function"
        },
        {
            "inputs": [
                {
                    "internalType": "address",
                    "name": "from",
                    "type": "address"
                },
                {
                    "internalType": "address",
                    "name": "to",
                    "type": "address"
                },
                {
                    "internalType": "uint256",
                    "name": "tokenId",
                    "type": "uint256"
                }
            ],
            "name": "transferFrom",
            "outputs": [],
            "stateMutability": "nonpayable",
            "type": "function"
        },
        {
            "inputs": [
                {
                    "internalType": "address",
                    "name": "newOwner",
                    "type": "address"
                }
            ],
            "name": "transferOwnership",
            "outputs": [],
            "stateMutability": "nonpayable",
            "type": "function"
        },
        {
            "inputs": [],
            "name": "unpause",
            "outputs": [],
            "stateMutability": "nonpayable",
            "type": "function"
        }
    ],
    "bytecode": "0x60806040523480156200001157600080fd5b50604080518082018252600781526626bcaa37b5b2b760c91b6020808301918252835180850190945260038452624d544b60e81b9084015281519192916200005c91600091620000ea565b50805162000072906001906020840190620000ea565b5050600b805460ff19169055506200008a3362000090565b620001cd565b600b80546001600160a01b03838116610100818102610100600160a81b031985161790945560405193909204169182907f8be0079c531659141344cd1fd0a4f28419497f9722a3daafe3b4186f6b6457e090600090a35050565b828054620000f89062000190565b90600052602060002090601f0160209004810192826200011c576000855562000167565b82601f106200013757805160ff191683800117855562000167565b8280016001018555821562000167579182015b82811115620001675782518255916020019190600101906200014a565b506200017592915062000179565b5090565b5b808211156200017557600081556001016200017a565b600181811c90821680620001a557607f821691505b60208210811415620001c757634e487b7160e01b600052602260045260246000fd5b50919050565b61216980620001dd6000396000f3fe608060405234801561001057600080fd5b50600436106101585760003560e01c80636352211e116100c3578063a22cb4651161007c578063a22cb465146102b2578063b88d4fde146102c5578063c87b56dd146102d8578063d204c45e146102eb578063e985e9c5146102fe578063f2fde38b1461033a57600080fd5b80636352211e1461025e57806370a0823114610271578063715018a6146102845780638456cb591461028c5780638da5cb5b1461029457806395d89b41146102aa57600080fd5b80632f745c59116101155780632f745c59146101ff5780633f4ba83a1461021257806342842e0e1461021a57806342966c681461022d5780634f6ccce7146102405780635c975abb1461025357600080fd5b806301ffc9a71461015d57806306fdde0314610185578063081812fc1461019a578063095ea7b3146101c557806318160ddd146101da57806323b872dd146101ec575b600080fd5b61017061016b366004611b63565b61034d565b60405190151581526020015b60405180910390f35b61018d61035e565b60405161017c9190611bd8565b6101ad6101a8366004611beb565b6103f0565b6040516001600160a01b03909116815260200161017c565b6101d86101d3366004611c20565b61047d565b005b6008545b60405190815260200161017c565b6101d86101fa366004611c4a565b610593565b6101de61020d366004611c20565b6105c5565b6101d861065b565b6101d8610228366004611c4a565b610695565b6101d861023b366004611beb565b6106b0565b6101de61024e366004611beb565b61072a565b600b5460ff16610170565b6101ad61026c366004611beb565b6107bd565b6101de61027f366004611c86565b610834565b6101d86108bb565b6101d86108f5565b600b5461010090046001600160a01b03166101ad565b61018d61092d565b6101d86102c0366004611ca1565b61093c565b6101d86102d3366004611d69565b61094b565b61018d6102e6366004611beb565b610983565b6101d86102f9366004611de5565b61098e565b61017061030c366004611e47565b6001600160a01b03918216600090815260056020908152604080832093909416825291909152205460ff1690565b6101d8610348366004611c86565b6109ed565b600061035882610a8b565b92915050565b60606000805461036d90611e7a565b80601f016020809104026020016040519081016040528092919081815260200182805461039990611e7a565b80156103e65780601f106103bb576101008083540402835291602001916103e6565b820191906000526020600020905b8154815290600101906020018083116103c957829003601f168201915b5050505050905090565b60006103fb82610ab0565b6104615760405162461bcd60e51b815260206004820152602c60248201527f4552433732313a20617070726f76656420717565727920666f72206e6f6e657860448201526b34b9ba32b73a103a37b5b2b760a11b60648201526084015b60405180910390fd5b506000908152600460205260409020546001600160a01b031690565b6000610488826107bd565b9050806001600160a01b0316836001600160a01b031614156104f65760405162461bcd60e51b815260206004820152602160248201527f4552433732313a20617070726f76616c20746f2063757272656e74206f776e656044820152603960f91b6064820152608401610458565b336001600160a01b03821614806105125750610512813361030c565b6105845760405162461bcd60e51b815260206004820152603860248201527f4552433732313a20617070726f76652063616c6c6572206973206e6f74206f7760448201527f6e6572206e6f7220617070726f76656420666f7220616c6c00000000000000006064820152608401610458565b61058e8383610acd565b505050565b61059e335b82610b3b565b6105ba5760405162461bcd60e51b815260040161045890611eb5565b61058e838383610c25565b60006105d083610834565b82106106325760405162461bcd60e51b815260206004820152602b60248201527f455243373231456e756d657261626c653a206f776e657220696e646578206f7560448201526a74206f6620626f756e647360a81b6064820152608401610458565b506001600160a01b03919091166000908152600660209081526040808320938352929052205490565b600b546001600160a01b0361010090910416331461068b5760405162461bcd60e51b815260040161045890611f06565b610693610dcc565b565b61058e8383836040518060200160405280600081525061094b565b6106b933610598565b61071e5760405162461bcd60e51b815260206004820152603060248201527f4552433732314275726e61626c653a2063616c6c6572206973206e6f74206f7760448201526f1b995c881b9bdc88185c1c1c9bdd995960821b6064820152608401610458565b61072781610e5f565b50565b600061073560085490565b82106107985760405162461bcd60e51b815260206004820152602c60248201527f455243373231456e756d657261626c653a20676c6f62616c20696e646578206f60448201526b7574206f6620626f756e647360a01b6064820152608401610458565b600882815481106107ab576107ab611f3b565b90600052602060002001549050919050565b6000818152600260205260408120546001600160a01b0316806103585760405162461bcd60e51b815260206004820152602960248201527f4552433732313a206f776e657220717565727920666f72206e6f6e657869737460448201526832b73a103a37b5b2b760b91b6064820152608401610458565b60006001600160a01b03821661089f5760405162461bcd60e51b815260206004820152602a60248201527f4552433732313a2062616c616e636520717565727920666f7220746865207a65604482015269726f206164647265737360b01b6064820152608401610458565b506001600160a01b031660009081526003602052604090205490565b600b546001600160a01b036101009091041633146108eb5760405162461bcd60e51b815260040161045890611f06565b6106936000610e68565b600b546001600160a01b036101009091041633146109255760405162461bcd60e51b815260040161045890611f06565b610693610ec2565b60606001805461036d90611e7a565b610947338383610f3d565b5050565b6109553383610b3b565b6109715760405162461bcd60e51b815260040161045890611eb5565b61097d8484848461100c565b50505050565b60606103588261103f565b600b546001600160a01b036101009091041633146109be5760405162461bcd60e51b815260040161045890611f06565b60006109c9600c5490565b90506109d9600c80546001019055565b6109e383826111a1565b61058e81836111bb565b600b546001600160a01b03610100909104163314610a1d5760405162461bcd60e51b815260040161045890611f06565b6001600160a01b038116610a825760405162461bcd60e51b815260206004820152602660248201527f4f776e61626c653a206e6577206f776e657220697320746865207a65726f206160448201526564647265737360d01b6064820152608401610458565b61072781610e68565b60006001600160e01b0319821663780e9d6360e01b1480610358575061035882611246565b6000908152600260205260409020546001600160a01b0316151590565b600081815260046020526040902080546001600160a01b0319166001600160a01b0384169081179091558190610b02826107bd565b6001600160a01b03167f8c5be1e5ebec7d5bd14f71427d1e84f3dd0314c0f7b2291e5b200ac8c7c3b92560405160405180910390a45050565b6000610b4682610ab0565b610ba75760405162461bcd60e51b815260206004820152602c60248201527f4552433732313a206f70657261746f7220717565727920666f72206e6f6e657860448201526b34b9ba32b73a103a37b5b2b760a11b6064820152608401610458565b6000610bb2836107bd565b9050806001600160a01b0316846001600160a01b03161480610bed5750836001600160a01b0316610be2846103f0565b6001600160a01b0316145b80610c1d57506001600160a01b0380821660009081526005602090815260408083209388168352929052205460ff165b949350505050565b826001600160a01b0316610c38826107bd565b6001600160a01b031614610c9c5760405162461bcd60e51b815260206004820152602560248201527f4552433732313a207472616e736665722066726f6d20696e636f72726563742060448201526437bbb732b960d91b6064820152608401610458565b6001600160a01b038216610cfe5760405162461bcd60e51b8152602060048201526024808201527f4552433732313a207472616e7366657220746f20746865207a65726f206164646044820152637265737360e01b6064820152608401610458565b610d09838383611296565b610d14600082610acd565b6001600160a01b0383166000908152600360205260408120805460019290610d3d908490611f67565b90915550506001600160a01b0382166000908152600360205260408120805460019290610d6b908490611f7e565b909155505060008181526002602052604080822080546001600160a01b0319166001600160a01b0386811691821790925591518493918716917fddf252ad1be2c89b69c2b068fc378daa952ba7f163c4a11628f55a4df523b3ef91a4505050565b600b5460ff16610e155760405162461bcd60e51b815260206004820152601460248201527314185d5cd8589b194e881b9bdd081c185d5cd95960621b6044820152606401610458565b600b805460ff191690557f5db9ee0a495bf2e6ff9c91a7834c1ba4fdd244a5e8aa4e537bd38aeae4b073aa335b6040516001600160a01b03909116815260200160405180910390a1565b610727816112e7565b600b80546001600160a01b03838116610100818102610100600160a81b031985161790945560405193909204169182907f8be0079c531659141344cd1fd0a4f28419497f9722a3daafe3b4186f6b6457e090600090a35050565b600b5460ff1615610f085760405162461bcd60e51b815260206004820152601060248201526f14185d5cd8589b194e881c185d5cd95960821b6044820152606401610458565b600b805460ff191660011790557f62e78cea01bee320cd4e420270b5ea74000d11b0c9f74754ebdbfc544b05a258610e423390565b816001600160a01b0316836001600160a01b03161415610f9f5760405162461bcd60e51b815260206004820152601960248201527f4552433732313a20617070726f766520746f2063616c6c6572000000000000006044820152606401610458565b6001600160a01b03838116600081815260056020908152604080832094871680845294825291829020805460ff191686151590811790915591519182527f17307eab39ab6107e8899845ad3d59bd9653f200f220920489ca2b5937696c31910160405180910390a3505050565b611017848484610c25565b61102384848484611327565b61097d5760405162461bcd60e51b815260040161045890611f96565b606061104a82610ab0565b6110b05760405162461bcd60e51b815260206004820152603160248201527f45524337323155524953746f726167653a2055524920717565727920666f72206044820152703737b732bc34b9ba32b73a103a37b5b2b760791b6064820152608401610458565b6000828152600a6020526040812080546110c990611e7a565b80601f01602080910402602001604051908101604052809291908181526020018280546110f590611e7a565b80156111425780601f1061111757610100808354040283529160200191611142565b820191906000526020600020905b81548152906001019060200180831161112557829003601f168201915b505050505090506000611153611434565b9050805160001415611166575092915050565b815115611198578082604051602001611180929190611fe8565b60405160208183030381529060405292505050919050565b610c1d84611454565b61094782826040518060200160405280600081525061151f565b6111c482610ab0565b6112275760405162461bcd60e51b815260206004820152602e60248201527f45524337323155524953746f726167653a2055524920736574206f66206e6f6e60448201526d32bc34b9ba32b73a103a37b5b2b760911b6064820152608401610458565b6000828152600a60209081526040909120825161058e92840190611a7e565b60006001600160e01b031982166380ac58cd60e01b148061127757506001600160e01b03198216635b5e139f60e01b145b8061035857506301ffc9a760e01b6001600160e01b0319831614610358565b600b5460ff16156112dc5760405162461bcd60e51b815260206004820152601060248201526f14185d5cd8589b194e881c185d5cd95960821b6044820152606401610458565b61058e838383611552565b6112f08161160a565b6000818152600a60205260409020805461130990611e7a565b159050610727576000818152600a6020526040812061072791611b02565b60006001600160a01b0384163b1561142957604051630a85bd0160e11b81526001600160a01b0385169063150b7a029061136b903390899088908890600401612017565b602060405180830381600087803b15801561138557600080fd5b505af19250505080156113b5575060408051601f3d908101601f191682019092526113b291810190612054565b60015b61140f573d8080156113e3576040519150601f19603f3d011682016040523d82523d6000602084013e6113e8565b606091505b5080516114075760405162461bcd60e51b815260040161045890611f96565b805181602001fd5b6001600160e01b031916630a85bd0160e11b149050610c1d565b506001949350505050565b60606040518060800160405280605381526020016120e160539139905090565b606061145f82610ab0565b6114c35760405162461bcd60e51b815260206004820152602f60248201527f4552433732314d657461646174613a2055524920717565727920666f72206e6f60448201526e3732bc34b9ba32b73a103a37b5b2b760891b6064820152608401610458565b60006114cd611434565b905060008151116114ed5760405180602001604052806000815250611518565b806114f7846116b1565b604051602001611508929190611fe8565b6040516020818303038152906040525b9392505050565b61152983836117af565b6115366000848484611327565b61058e5760405162461bcd60e51b815260040161045890611f96565b6001600160a01b0383166115ad576115a881600880546000838152600960205260408120829055600182018355919091527ff3f7a9fe364faab93b216da50a3214154f22a0a2b415b23a84c8169e8b636ee30155565b6115d0565b816001600160a01b0316836001600160a01b0316146115d0576115d083826118ee565b6001600160a01b0382166115e75761058e8161198b565b826001600160a01b0316826001600160a01b03161461058e5761058e8282611a3a565b6000611615826107bd565b905061162381600084611296565b61162e600083610acd565b6001600160a01b0381166000908152600360205260408120805460019290611657908490611f67565b909155505060008281526002602052604080822080546001600160a01b0319169055518391906001600160a01b038416907fddf252ad1be2c89b69c2b068fc378daa952ba7f163c4a11628f55a4df523b3ef908390a45050565b6060816116d55750506040805180820190915260018152600360fc1b602082015290565b8160005b81156116ff57806116e981612071565b91506116f89050600a836120a2565b91506116d9565b60008167ffffffffffffffff81111561171a5761171a611cdd565b6040519080825280601f01601f191660200182016040528015611744576020820181803683370190505b5090505b8415610c1d57611759600183611f67565b9150611766600a866120b6565b611771906030611f7e565b60f81b81838151811061178657611786611f3b565b60200101906001600160f81b031916908160001a9053506117a8600a866120a2565b9450611748565b6001600160a01b0382166118055760405162461bcd60e51b815260206004820181905260248201527f4552433732313a206d696e7420746f20746865207a65726f20616464726573736044820152606401610458565b61180e81610ab0565b1561185b5760405162461bcd60e51b815260206004820152601c60248201527f4552433732313a20746f6b656e20616c7265616479206d696e746564000000006044820152606401610458565b61186760008383611296565b6001600160a01b0382166000908152600360205260408120805460019290611890908490611f7e565b909155505060008181526002602052604080822080546001600160a01b0319166001600160a01b03861690811790915590518392907fddf252ad1be2c89b69c2b068fc378daa952ba7f163c4a11628f55a4df523b3ef908290a45050565b600060016118fb84610834565b6119059190611f67565b600083815260076020526040902054909150808214611958576001600160a01b03841660009081526006602090815260408083208584528252808320548484528184208190558352600790915290208190555b5060009182526007602090815260408084208490556001600160a01b039094168352600681528383209183525290812055565b60085460009061199d90600190611f67565b600083815260096020526040812054600880549394509092849081106119c5576119c5611f3b565b9060005260206000200154905080600883815481106119e6576119e6611f3b565b6000918252602080832090910192909255828152600990915260408082208490558582528120556008805480611a1e57611a1e6120ca565b6001900381819060005260206000200160009055905550505050565b6000611a4583610834565b6001600160a01b039093166000908152600660209081526040808320868452825280832085905593825260079052919091209190915550565b828054611a8a90611e7a565b90600052602060002090601f016020900481019282611aac5760008555611af2565b82601f10611ac557805160ff1916838001178555611af2565b82800160010185558215611af2579182015b82811115611af2578251825591602001919060010190611ad7565b50611afe929150611b38565b5090565b508054611b0e90611e7a565b6000825580601f10611b1e575050565b601f01602090049060005260206000209081019061072791905b5b80821115611afe5760008155600101611b39565b6001600160e01b03198116811461072757600080fd5b600060208284031215611b7557600080fd5b813561151881611b4d565b60005b83811015611b9b578181015183820152602001611b83565b8381111561097d5750506000910152565b60008151808452611bc4816020860160208601611b80565b601f01601f19169290920160200192915050565b6020815260006115186020830184611bac565b600060208284031215611bfd57600080fd5b5035919050565b80356001600160a01b0381168114611c1b57600080fd5b919050565b60008060408385031215611c3357600080fd5b611c3c83611c04565b946020939093013593505050565b600080600060608486031215611c5f57600080fd5b611c6884611c04565b9250611c7660208501611c04565b9150604084013590509250925092565b600060208284031215611c9857600080fd5b61151882611c04565b60008060408385031215611cb457600080fd5b611cbd83611c04565b915060208301358015158114611cd257600080fd5b809150509250929050565b634e487b7160e01b600052604160045260246000fd5b600067ffffffffffffffff80841115611d0e57611d0e611cdd565b604051601f8501601f19908116603f01168101908282118183101715611d3657611d36611cdd565b81604052809350858152868686011115611d4f57600080fd5b858560208301376000602087830101525050509392505050565b60008060008060808587031215611d7f57600080fd5b611d8885611c04565b9350611d9660208601611c04565b925060408501359150606085013567ffffffffffffffff811115611db957600080fd5b8501601f81018713611dca57600080fd5b611dd987823560208401611cf3565b91505092959194509250565b60008060408385031215611df857600080fd5b611e0183611c04565b9150602083013567ffffffffffffffff811115611e1d57600080fd5b8301601f81018513611e2e57600080fd5b611e3d85823560208401611cf3565b9150509250929050565b60008060408385031215611e5a57600080fd5b611e6383611c04565b9150611e7160208401611c04565b90509250929050565b600181811c90821680611e8e57607f821691505b60208210811415611eaf57634e487b7160e01b600052602260045260246000fd5b50919050565b60208082526031908201527f4552433732313a207472616e736665722063616c6c6572206973206e6f74206f6040820152701ddb995c881b9bdc88185c1c1c9bdd9959607a1b606082015260800190565b6020808252818101527f4f776e61626c653a2063616c6c6572206973206e6f7420746865206f776e6572604082015260600190565b634e487b7160e01b600052603260045260246000fd5b634e487b7160e01b600052601160045260246000fd5b600082821015611f7957611f79611f51565b500390565b60008219821115611f9157611f91611f51565b500190565b60208082526032908201527f4552433732313a207472616e7366657220746f206e6f6e20455243373231526560408201527131b2b4bb32b91034b6b83632b6b2b73a32b960711b606082015260800190565b60008351611ffa818460208801611b80565b83519083019061200e818360208801611b80565b01949350505050565b6001600160a01b038581168252841660208201526040810183905260806060820181905260009061204a90830184611bac565b9695505050505050565b60006020828403121561206657600080fd5b815161151881611b4d565b600060001982141561208557612085611f51565b5060010190565b634e487b7160e01b600052601260045260246000fd5b6000826120b1576120b161208c565b500490565b6000826120c5576120c561208c565b500690565b634e487b7160e01b600052603160045260246000fdfe68747470733a2f2f6261667962656968706a686b65756971336b366e716133666b67656967657269376965627472737579756579357936767933366e333435786d62692e697066732e647765622e6c696e6b2fa2646970667358221220852c40016f33f1f15d496b23d5a35ea9debc1a5b26dadbf045bf1d1fa382f8e264736f6c63430008090033",
    "linkReferences": {},
    "deployedLinkReferences": {}
}